{
	"contracts/24_ExampleStrings.sol": {
		"ExampleStrings": {
			"abi": [
				{
					"inputs": [
						{
							"internalType": "string",
							"name": "_myString",
							"type": "string"
						}
					],
					"name": "compareTwoString",
					"outputs": [
						{
							"internalType": "bool",
							"name": "",
							"type": "bool"
						}
					],
					"stateMutability": "view",
					"type": "function"
				},
				{
					"inputs": [],
					"name": "getBytesLength",
					"outputs": [
						{
							"internalType": "uint256",
							"name": "",
							"type": "uint256"
						}
					],
					"stateMutability": "view",
					"type": "function"
				},
				{
					"inputs": [],
					"name": "myBytes",
					"outputs": [
						{
							"internalType": "bytes",
							"name": "",
							"type": "bytes"
						}
					],
					"stateMutability": "view",
					"type": "function"
				},
				{
					"inputs": [],
					"name": "myString",
					"outputs": [
						{
							"internalType": "string",
							"name": "",
							"type": "string"
						}
					],
					"stateMutability": "view",
					"type": "function"
				},
				{
					"inputs": [
						{
							"internalType": "string",
							"name": "_myString",
							"type": "string"
						}
					],
					"name": "setMyString",
					"outputs": [],
					"stateMutability": "nonpayable",
					"type": "function"
				}
			],
			"devdoc": {
				"kind": "dev",
				"methods": {},
				"version": 1
			},
			"evm": {
				"assembly": "    /* \"contracts/24_ExampleStrings.sol\":61:572  contract ExampleStrings {... */\n  mstore(0x40, 0x80)\n    /* \"contracts/24_ExampleStrings.sol\":94:132  string public myString = \"Hello, Hell\" */\n  mload(0x40)\n  dup1\n  0x40\n  add\n  0x40\n  mstore\n  dup1\n  0x0b\n  dup2\n  mstore\n  0x20\n  add\n  0x48656c6c6f2c2048656c6c000000000000000000000000000000000000000000\n  dup2\n  mstore\n  pop\n  0x00\n  swap1\n  dup2\n  tag_1\n  swap2\n  swap1\n  tag_2\n  jump\t// in\ntag_1:\n  pop\n    /* \"contracts/24_ExampleStrings.sol\":139:175  bytes public myBytes = \"Hello, Hell\" */\n  mload(0x40)\n  dup1\n  0x40\n  add\n  0x40\n  mstore\n  dup1\n  0x0b\n  dup2\n  mstore\n  0x20\n  add\n  0x48656c6c6f2c2048656c6c000000000000000000000000000000000000000000\n  dup2\n  mstore\n  pop\n  0x01\n  swap1\n  dup2\n  tag_3\n  swap2\n  swap1\n  tag_4\n  jump\t// in\ntag_3:\n  pop\n    /* \"contracts/24_ExampleStrings.sol\":61:572  contract ExampleStrings {... */\n  callvalue\n  dup1\n  iszero\n  tag_5\n  jumpi\n  0x00\n  dup1\n  revert\ntag_5:\n  pop\n  jump(tag_6)\n    /* \"#utility.yul\":7:106   */\ntag_7:\n    /* \"#utility.yul\":59:65   */\n  0x00\n    /* \"#utility.yul\":93:98   */\n  dup2\n    /* \"#utility.yul\":87:99   */\n  mload\n    /* \"#utility.yul\":77:99   */\n  swap1\n  pop\n    /* \"#utility.yul\":7:106   */\n  swap2\n  swap1\n  pop\n  jump\t// out\n    /* \"#utility.yul\":112:292   */\ntag_8:\n    /* \"#utility.yul\":160:237   */\n  0x4e487b7100000000000000000000000000000000000000000000000000000000\n    /* \"#utility.yul\":157:158   */\n  0x00\n    /* \"#utility.yul\":150:238   */\n  mstore\n    /* \"#utility.yul\":257:261   */\n  0x41\n    /* \"#utility.yul\":254:255   */\n  0x04\n    /* \"#utility.yul\":247:262   */\n  mstore\n    /* \"#utility.yul\":281:285   */\n  0x24\n    /* \"#utility.yul\":278:279   */\n  0x00\n    /* \"#utility.yul\":271:286   */\n  revert\n    /* \"#utility.yul\":298:478   */\ntag_9:\n    /* \"#utility.yul\":346:423   */\n  0x4e487b7100000000000000000000000000000000000000000000000000000000\n    /* \"#utility.yul\":343:344   */\n  0x00\n    /* \"#utility.yul\":336:424   */\n  mstore\n    /* \"#utility.yul\":443:447   */\n  0x22\n    /* \"#utility.yul\":440:441   */\n  0x04\n    /* \"#utility.yul\":433:448   */\n  mstore\n    /* \"#utility.yul\":467:471   */\n  0x24\n    /* \"#utility.yul\":464:465   */\n  0x00\n    /* \"#utility.yul\":457:472   */\n  revert\n    /* \"#utility.yul\":484:804   */\ntag_10:\n    /* \"#utility.yul\":528:534   */\n  0x00\n    /* \"#utility.yul\":565:566   */\n  0x02\n    /* \"#utility.yul\":559:563   */\n  dup3\n    /* \"#utility.yul\":555:567   */\n  div\n    /* \"#utility.yul\":545:567   */\n  swap1\n  pop\n    /* \"#utility.yul\":612:613   */\n  0x01\n    /* \"#utility.yul\":606:610   */\n  dup3\n    /* \"#utility.yul\":602:614   */\n  and\n    /* \"#utility.yul\":633:651   */\n  dup1\n    /* \"#utility.yul\":623:704   */\n  tag_34\n  jumpi\n    /* \"#utility.yul\":689:693   */\n  0x7f\n    /* \"#utility.yul\":681:687   */\n  dup3\n    /* \"#utility.yul\":677:694   */\n  and\n    /* \"#utility.yul\":667:694   */\n  swap2\n  pop\n    /* \"#utility.yul\":623:704   */\ntag_34:\n    /* \"#utility.yul\":751:753   */\n  0x20\n    /* \"#utility.yul\":743:749   */\n  dup3\n    /* \"#utility.yul\":740:754   */\n  lt\n    /* \"#utility.yul\":720:738   */\n  dup2\n    /* \"#utility.yul\":717:755   */\n  sub\n    /* \"#utility.yul\":714:798   */\n  tag_35\n  jumpi\n    /* \"#utility.yul\":770:788   */\n  tag_36\n  tag_9\n  jump\t// in\ntag_36:\n    /* \"#utility.yul\":714:798   */\ntag_35:\n    /* \"#utility.yul\":535:804   */\n  pop\n    /* \"#utility.yul\":484:804   */\n  swap2\n  swap1\n  pop\n  jump\t// out\n    /* \"#utility.yul\":810:951   */\ntag_11:\n    /* \"#utility.yul\":859:863   */\n  0x00\n    /* \"#utility.yul\":882:885   */\n  dup2\n    /* \"#utility.yul\":874:885   */\n  swap1\n  pop\n    /* \"#utility.yul\":905:908   */\n  dup2\n    /* \"#utility.yul\":902:903   */\n  0x00\n    /* \"#utility.yul\":895:909   */\n  mstore\n    /* \"#utility.yul\":939:943   */\n  0x20\n    /* \"#utility.yul\":936:937   */\n  0x00\n    /* \"#utility.yul\":926:944   */\n  keccak256\n    /* \"#utility.yul\":918:944   */\n  swap1\n  pop\n    /* \"#utility.yul\":810:951   */\n  swap2\n  swap1\n  pop\n  jump\t// out\n    /* \"#utility.yul\":957:1050   */\ntag_12:\n    /* \"#utility.yul\":994:1000   */\n  0x00\n    /* \"#utility.yul\":1041:1043   */\n  0x20\n    /* \"#utility.yul\":1036:1038   */\n  0x1f\n    /* \"#utility.yul\":1029:1034   */\n  dup4\n    /* \"#utility.yul\":1025:1039   */\n  add\n    /* \"#utility.yul\":1021:1044   */\n  div\n    /* \"#utility.yul\":1011:1044   */\n  swap1\n  pop\n    /* \"#utility.yul\":957:1050   */\n  swap2\n  swap1\n  pop\n  jump\t// out\n    /* \"#utility.yul\":1056:1163   */\ntag_13:\n    /* \"#utility.yul\":1100:1108   */\n  0x00\n    /* \"#utility.yul\":1150:1155   */\n  dup3\n    /* \"#utility.yul\":1144:1148   */\n  dup3\n    /* \"#utility.yul\":1140:1156   */\n  shl\n    /* \"#utility.yul\":1119:1156   */\n  swap1\n  pop\n    /* \"#utility.yul\":1056:1163   */\n  swap3\n  swap2\n  pop\n  pop\n  jump\t// out\n    /* \"#utility.yul\":1169:1562   */\ntag_14:\n    /* \"#utility.yul\":1238:1244   */\n  0x00\n    /* \"#utility.yul\":1288:1289   */\n  0x08\n    /* \"#utility.yul\":1276:1286   */\n  dup4\n    /* \"#utility.yul\":1272:1290   */\n  mul\n    /* \"#utility.yul\":1311:1408   */\n  tag_41\n    /* \"#utility.yul\":1341:1407   */\n  0xffffffffffffffffffffffffffffffffffffffffffffffffffffffffffffffff\n    /* \"#utility.yul\":1330:1339   */\n  dup3\n    /* \"#utility.yul\":1311:1408   */\n  tag_13\n  jump\t// in\ntag_41:\n    /* \"#utility.yul\":1429:1468   */\n  tag_42\n    /* \"#utility.yul\":1459:1467   */\n  dup7\n    /* \"#utility.yul\":1448:1457   */\n  dup4\n    /* \"#utility.yul\":1429:1468   */\n  tag_13\n  jump\t// in\ntag_42:\n    /* \"#utility.yul\":1417:1468   */\n  swap6\n  pop\n    /* \"#utility.yul\":1501:1505   */\n  dup1\n    /* \"#utility.yul\":1497:1506   */\n  not\n    /* \"#utility.yul\":1490:1495   */\n  dup5\n    /* \"#utility.yul\":1486:1507   */\n  and\n    /* \"#utility.yul\":1477:1507   */\n  swap4\n  pop\n    /* \"#utility.yul\":1550:1554   */\n  dup1\n    /* \"#utility.yul\":1540:1548   */\n  dup7\n    /* \"#utility.yul\":1536:1555   */\n  and\n    /* \"#utility.yul\":1529:1534   */\n  dup5\n    /* \"#utility.yul\":1526:1556   */\n  or\n    /* \"#utility.yul\":1516:1556   */\n  swap3\n  pop\n    /* \"#utility.yul\":1245:1562   */\n  pop\n  pop\n    /* \"#utility.yul\":1169:1562   */\n  swap4\n  swap3\n  pop\n  pop\n  pop\n  jump\t// out\n    /* \"#utility.yul\":1568:1645   */\ntag_15:\n    /* \"#utility.yul\":1605:1612   */\n  0x00\n    /* \"#utility.yul\":1634:1639   */\n  dup2\n    /* \"#utility.yul\":1623:1639   */\n  swap1\n  pop\n    /* \"#utility.yul\":1568:1645   */\n  swap2\n  swap1\n  pop\n  jump\t// out\n    /* \"#utility.yul\":1651:1711   */\ntag_16:\n    /* \"#utility.yul\":1679:1682   */\n  0x00\n    /* \"#utility.yul\":1700:1705   */\n  dup2\n    /* \"#utility.yul\":1693:1705   */\n  swap1\n  pop\n    /* \"#utility.yul\":1651:1711   */\n  swap2\n  swap1\n  pop\n  jump\t// out\n    /* \"#utility.yul\":1717:1859   */\ntag_17:\n    /* \"#utility.yul\":1767:1776   */\n  0x00\n    /* \"#utility.yul\":1800:1853   */\n  tag_46\n    /* \"#utility.yul\":1818:1852   */\n  tag_47\n    /* \"#utility.yul\":1827:1851   */\n  tag_48\n    /* \"#utility.yul\":1845:1850   */\n  dup5\n    /* \"#utility.yul\":1827:1851   */\n  tag_15\n  jump\t// in\ntag_48:\n    /* \"#utility.yul\":1818:1852   */\n  tag_16\n  jump\t// in\ntag_47:\n    /* \"#utility.yul\":1800:1853   */\n  tag_15\n  jump\t// in\ntag_46:\n    /* \"#utility.yul\":1787:1853   */\n  swap1\n  pop\n    /* \"#utility.yul\":1717:1859   */\n  swap2\n  swap1\n  pop\n  jump\t// out\n    /* \"#utility.yul\":1865:1940   */\ntag_18:\n    /* \"#utility.yul\":1908:1911   */\n  0x00\n    /* \"#utility.yul\":1929:1934   */\n  dup2\n    /* \"#utility.yul\":1922:1934   */\n  swap1\n  pop\n    /* \"#utility.yul\":1865:1940   */\n  swap2\n  swap1\n  pop\n  jump\t// out\n    /* \"#utility.yul\":1946:2215   */\ntag_19:\n    /* \"#utility.yul\":2056:2095   */\n  tag_51\n    /* \"#utility.yul\":2087:2094   */\n  dup4\n    /* \"#utility.yul\":2056:2095   */\n  tag_17\n  jump\t// in\ntag_51:\n    /* \"#utility.yul\":2117:2208   */\n  tag_52\n    /* \"#utility.yul\":2166:2207   */\n  tag_53\n    /* \"#utility.yul\":2190:2206   */\n  dup3\n    /* \"#utility.yul\":2166:2207   */\n  tag_18\n  jump\t// in\ntag_53:\n    /* \"#utility.yul\":2158:2164   */\n  dup5\n    /* \"#utility.yul\":2151:2155   */\n  dup5\n    /* \"#utility.yul\":2145:2156   */\n  sload\n    /* \"#utility.yul\":2117:2208   */\n  tag_14\n  jump\t// in\ntag_52:\n    /* \"#utility.yul\":2111:2115   */\n  dup3\n    /* \"#utility.yul\":2104:2209   */\n  sstore\n    /* \"#utility.yul\":2022:2215   */\n  pop\n    /* \"#utility.yul\":1946:2215   */\n  pop\n  pop\n  pop\n  jump\t// out\n    /* \"#utility.yul\":2221:2294   */\ntag_20:\n    /* \"#utility.yul\":2266:2269   */\n  0x00\n    /* \"#utility.yul\":2221:2294   */\n  swap1\n  jump\t// out\n    /* \"#utility.yul\":2300:2489   */\ntag_21:\n    /* \"#utility.yul\":2377:2409   */\n  tag_56\n  tag_20\n  jump\t// in\ntag_56:\n    /* \"#utility.yul\":2418:2483   */\n  tag_57\n    /* \"#utility.yul\":2476:2482   */\n  dup2\n    /* \"#utility.yul\":2468:2474   */\n  dup5\n    /* \"#utility.yul\":2462:2466   */\n  dup5\n    /* \"#utility.yul\":2418:2483   */\n  tag_19\n  jump\t// in\ntag_57:\n    /* \"#utility.yul\":2353:2489   */\n  pop\n    /* \"#utility.yul\":2300:2489   */\n  pop\n  pop\n  jump\t// out\n    /* \"#utility.yul\":2495:2681   */\ntag_22:\n    /* \"#utility.yul\":2555:2675   */\ntag_59:\n    /* \"#utility.yul\":2572:2575   */\n  dup2\n    /* \"#utility.yul\":2565:2570   */\n  dup2\n    /* \"#utility.yul\":2562:2576   */\n  lt\n    /* \"#utility.yul\":2555:2675   */\n  iszero\n  tag_61\n  jumpi\n    /* \"#utility.yul\":2626:2665   */\n  tag_62\n    /* \"#utility.yul\":2663:2664   */\n  0x00\n    /* \"#utility.yul\":2656:2661   */\n  dup3\n    /* \"#utility.yul\":2626:2665   */\n  tag_21\n  jump\t// in\ntag_62:\n    /* \"#utility.yul\":2599:2600   */\n  0x01\n    /* \"#utility.yul\":2592:2597   */\n  dup2\n    /* \"#utility.yul\":2588:2601   */\n  add\n    /* \"#utility.yul\":2579:2601   */\n  swap1\n  pop\n    /* \"#utility.yul\":2555:2675   */\n  jump(tag_59)\ntag_61:\n    /* \"#utility.yul\":2495:2681   */\n  pop\n  pop\n  jump\t// out\n    /* \"#utility.yul\":2687:3230   */\ntag_23:\n    /* \"#utility.yul\":2788:2790   */\n  0x1f\n    /* \"#utility.yul\":2783:2786   */\n  dup3\n    /* \"#utility.yul\":2780:2791   */\n  gt\n    /* \"#utility.yul\":2777:3223   */\n  iszero\n  tag_64\n  jumpi\n    /* \"#utility.yul\":2822:2860   */\n  tag_65\n    /* \"#utility.yul\":2854:2859   */\n  dup2\n    /* \"#utility.yul\":2822:2860   */\n  tag_11\n  jump\t// in\ntag_65:\n    /* \"#utility.yul\":2906:2935   */\n  tag_66\n    /* \"#utility.yul\":2924:2934   */\n  dup5\n    /* \"#utility.yul\":2906:2935   */\n  tag_12\n  jump\t// in\ntag_66:\n    /* \"#utility.yul\":2896:2904   */\n  dup2\n    /* \"#utility.yul\":2892:2936   */\n  add\n    /* \"#utility.yul\":3089:3091   */\n  0x20\n    /* \"#utility.yul\":3077:3087   */\n  dup6\n    /* \"#utility.yul\":3074:3092   */\n  lt\n    /* \"#utility.yul\":3071:3120   */\n  iszero\n  tag_67\n  jumpi\n    /* \"#utility.yul\":3110:3118   */\n  dup2\n    /* \"#utility.yul\":3095:3118   */\n  swap1\n  pop\n    /* \"#utility.yul\":3071:3120   */\ntag_67:\n    /* \"#utility.yul\":3133:3213   */\n  tag_68\n    /* \"#utility.yul\":3189:3211   */\n  tag_69\n    /* \"#utility.yul\":3207:3210   */\n  dup6\n    /* \"#utility.yul\":3189:3211   */\n  tag_12\n  jump\t// in\ntag_69:\n    /* \"#utility.yul\":3179:3187   */\n  dup4\n    /* \"#utility.yul\":3175:3212   */\n  add\n    /* \"#utility.yul\":3162:3173   */\n  dup3\n    /* \"#utility.yul\":3133:3213   */\n  tag_22\n  jump\t// in\ntag_68:\n    /* \"#utility.yul\":2792:3223   */\n  pop\n  pop\n    /* \"#utility.yul\":2777:3223   */\ntag_64:\n    /* \"#utility.yul\":2687:3230   */\n  pop\n  pop\n  pop\n  jump\t// out\n    /* \"#utility.yul\":3236:3353   */\ntag_24:\n    /* \"#utility.yul\":3290:3298   */\n  0x00\n    /* \"#utility.yul\":3340:3345   */\n  dup3\n    /* \"#utility.yul\":3334:3338   */\n  dup3\n    /* \"#utility.yul\":3330:3346   */\n  shr\n    /* \"#utility.yul\":3309:3346   */\n  swap1\n  pop\n    /* \"#utility.yul\":3236:3353   */\n  swap3\n  swap2\n  pop\n  pop\n  jump\t// out\n    /* \"#utility.yul\":3359:3528   */\ntag_25:\n    /* \"#utility.yul\":3403:3409   */\n  0x00\n    /* \"#utility.yul\":3436:3487   */\n  tag_72\n    /* \"#utility.yul\":3484:3485   */\n  0x00\n    /* \"#utility.yul\":3480:3486   */\n  not\n    /* \"#utility.yul\":3472:3477   */\n  dup5\n    /* \"#utility.yul\":3469:3470   */\n  0x08\n    /* \"#utility.yul\":3465:3478   */\n  mul\n    /* \"#utility.yul\":3436:3487   */\n  tag_24\n  jump\t// in\ntag_72:\n    /* \"#utility.yul\":3432:3488   */\n  not\n    /* \"#utility.yul\":3517:3521   */\n  dup1\n    /* \"#utility.yul\":3511:3515   */\n  dup4\n    /* \"#utility.yul\":3507:3522   */\n  and\n    /* \"#utility.yul\":3497:3522   */\n  swap2\n  pop\n    /* \"#utility.yul\":3410:3528   */\n  pop\n    /* \"#utility.yul\":3359:3528   */\n  swap3\n  swap2\n  pop\n  pop\n  jump\t// out\n    /* \"#utility.yul\":3533:3828   */\ntag_26:\n    /* \"#utility.yul\":3609:3613   */\n  0x00\n    /* \"#utility.yul\":3755:3784   */\n  tag_74\n    /* \"#utility.yul\":3780:3783   */\n  dup4\n    /* \"#utility.yul\":3774:3778   */\n  dup4\n    /* \"#utility.yul\":3755:3784   */\n  tag_25\n  jump\t// in\ntag_74:\n    /* \"#utility.yul\":3747:3784   */\n  swap2\n  pop\n    /* \"#utility.yul\":3817:3820   */\n  dup3\n    /* \"#utility.yul\":3814:3815   */\n  0x02\n    /* \"#utility.yul\":3810:3821   */\n  mul\n    /* \"#utility.yul\":3804:3808   */\n  dup3\n    /* \"#utility.yul\":3801:3822   */\n  or\n    /* \"#utility.yul\":3793:3822   */\n  swap1\n  pop\n    /* \"#utility.yul\":3533:3828   */\n  swap3\n  swap2\n  pop\n  pop\n  jump\t// out\n    /* \"#utility.yul\":3833:5228   */\ntag_2:\n    /* \"#utility.yul\":3950:3987   */\n  tag_76\n    /* \"#utility.yul\":3983:3986   */\n  dup3\n    /* \"#utility.yul\":3950:3987   */\n  tag_7\n  jump\t// in\ntag_76:\n    /* \"#utility.yul\":4052:4070   */\n  0xffffffffffffffff\n    /* \"#utility.yul\":4044:4050   */\n  dup2\n    /* \"#utility.yul\":4041:4071   */\n  gt\n    /* \"#utility.yul\":4038:4094   */\n  iszero\n  tag_77\n  jumpi\n    /* \"#utility.yul\":4074:4092   */\n  tag_78\n  tag_8\n  jump\t// in\ntag_78:\n    /* \"#utility.yul\":4038:4094   */\ntag_77:\n    /* \"#utility.yul\":4118:4156   */\n  tag_79\n    /* \"#utility.yul\":4150:4154   */\n  dup3\n    /* \"#utility.yul\":4144:4155   */\n  sload\n    /* \"#utility.yul\":4118:4156   */\n  tag_10\n  jump\t// in\ntag_79:\n    /* \"#utility.yul\":4203:4270   */\n  tag_80\n    /* \"#utility.yul\":4263:4269   */\n  dup3\n    /* \"#utility.yul\":4255:4261   */\n  dup3\n    /* \"#utility.yul\":4249:4253   */\n  dup6\n    /* \"#utility.yul\":4203:4270   */\n  tag_23\n  jump\t// in\ntag_80:\n    /* \"#utility.yul\":4297:4298   */\n  0x00\n    /* \"#utility.yul\":4321:4325   */\n  0x20\n    /* \"#utility.yul\":4308:4325   */\n  swap1\n  pop\n    /* \"#utility.yul\":4353:4355   */\n  0x1f\n    /* \"#utility.yul\":4345:4351   */\n  dup4\n    /* \"#utility.yul\":4342:4356   */\n  gt\n    /* \"#utility.yul\":4370:4371   */\n  0x01\n    /* \"#utility.yul\":4365:4983   */\n  dup2\n  eq\n  tag_82\n  jumpi\n    /* \"#utility.yul\":5027:5028   */\n  0x00\n    /* \"#utility.yul\":5044:5050   */\n  dup5\n    /* \"#utility.yul\":5041:5118   */\n  iszero\n  tag_83\n  jumpi\n    /* \"#utility.yul\":5093:5102   */\n  dup3\n    /* \"#utility.yul\":5088:5091   */\n  dup8\n    /* \"#utility.yul\":5084:5103   */\n  add\n    /* \"#utility.yul\":5078:5104   */\n  mload\n    /* \"#utility.yul\":5069:5104   */\n  swap1\n  pop\n    /* \"#utility.yul\":5041:5118   */\ntag_83:\n    /* \"#utility.yul\":5144:5211   */\n  tag_84\n    /* \"#utility.yul\":5204:5210   */\n  dup6\n    /* \"#utility.yul\":5197:5202   */\n  dup3\n    /* \"#utility.yul\":5144:5211   */\n  tag_26\n  jump\t// in\ntag_84:\n    /* \"#utility.yul\":5138:5142   */\n  dup7\n    /* \"#utility.yul\":5131:5212   */\n  sstore\n    /* \"#utility.yul\":5000:5222   */\n  pop\n    /* \"#utility.yul\":4335:5222   */\n  jump(tag_81)\n    /* \"#utility.yul\":4365:4983   */\ntag_82:\n    /* \"#utility.yul\":4417:4421   */\n  0x1f\n    /* \"#utility.yul\":4413:4422   */\n  not\n    /* \"#utility.yul\":4405:4411   */\n  dup5\n    /* \"#utility.yul\":4401:4423   */\n  and\n    /* \"#utility.yul\":4451:4488   */\n  tag_85\n    /* \"#utility.yul\":4483:4487   */\n  dup7\n    /* \"#utility.yul\":4451:4488   */\n  tag_11\n  jump\t// in\ntag_85:\n    /* \"#utility.yul\":4510:4511   */\n  0x00\n    /* \"#utility.yul\":4524:4732   */\ntag_86:\n    /* \"#utility.yul\":4538:4545   */\n  dup3\n    /* \"#utility.yul\":4535:4536   */\n  dup2\n    /* \"#utility.yul\":4532:4546   */\n  lt\n    /* \"#utility.yul\":4524:4732   */\n  iszero\n  tag_88\n  jumpi\n    /* \"#utility.yul\":4617:4626   */\n  dup5\n    /* \"#utility.yul\":4612:4615   */\n  dup10\n    /* \"#utility.yul\":4608:4627   */\n  add\n    /* \"#utility.yul\":4602:4628   */\n  mload\n    /* \"#utility.yul\":4594:4600   */\n  dup3\n    /* \"#utility.yul\":4587:4629   */\n  sstore\n    /* \"#utility.yul\":4668:4669   */\n  0x01\n    /* \"#utility.yul\":4660:4666   */\n  dup3\n    /* \"#utility.yul\":4656:4670   */\n  add\n    /* \"#utility.yul\":4646:4670   */\n  swap2\n  pop\n    /* \"#utility.yul\":4715:4717   */\n  0x20\n    /* \"#utility.yul\":4704:4713   */\n  dup6\n    /* \"#utility.yul\":4700:4718   */\n  add\n    /* \"#utility.yul\":4687:4718   */\n  swap5\n  pop\n    /* \"#utility.yul\":4561:4565   */\n  0x20\n    /* \"#utility.yul\":4558:4559   */\n  dup2\n    /* \"#utility.yul\":4554:4566   */\n  add\n    /* \"#utility.yul\":4549:4566   */\n  swap1\n  pop\n    /* \"#utility.yul\":4524:4732   */\n  jump(tag_86)\ntag_88:\n    /* \"#utility.yul\":4760:4766   */\n  dup7\n    /* \"#utility.yul\":4751:4758   */\n  dup4\n    /* \"#utility.yul\":4748:4767   */\n  lt\n    /* \"#utility.yul\":4745:4924   */\n  iszero\n  tag_89\n  jumpi\n    /* \"#utility.yul\":4818:4827   */\n  dup5\n    /* \"#utility.yul\":4813:4816   */\n  dup10\n    /* \"#utility.yul\":4809:4828   */\n  add\n    /* \"#utility.yul\":4803:4829   */\n  mload\n    /* \"#utility.yul\":4861:4909   */\n  tag_90\n    /* \"#utility.yul\":4903:4907   */\n  0x1f\n    /* \"#utility.yul\":4895:4901   */\n  dup10\n    /* \"#utility.yul\":4891:4908   */\n  and\n    /* \"#utility.yul\":4880:4889   */\n  dup3\n    /* \"#utility.yul\":4861:4909   */\n  tag_25\n  jump\t// in\ntag_90:\n    /* \"#utility.yul\":4853:4859   */\n  dup4\n    /* \"#utility.yul\":4846:4910   */\n  sstore\n    /* \"#utility.yul\":4768:4924   */\n  pop\n    /* \"#utility.yul\":4745:4924   */\ntag_89:\n    /* \"#utility.yul\":4970:4971   */\n  0x01\n    /* \"#utility.yul\":4966:4967   */\n  0x02\n    /* \"#utility.yul\":4958:4964   */\n  dup9\n    /* \"#utility.yul\":4954:4968   */\n  mul\n    /* \"#utility.yul\":4950:4972   */\n  add\n    /* \"#utility.yul\":4944:4948   */\n  dup9\n    /* \"#utility.yul\":4937:4973   */\n  sstore\n    /* \"#utility.yul\":4372:4983   */\n  pop\n  pop\n  pop\n    /* \"#utility.yul\":4335:5222   */\ntag_81:\n  pop\n    /* \"#utility.yul\":3925:5228   */\n  pop\n  pop\n  pop\n    /* \"#utility.yul\":3833:5228   */\n  pop\n  pop\n  jump\t// out\n    /* \"#utility.yul\":5234:5374   */\ntag_27:\n    /* \"#utility.yul\":5282:5286   */\n  0x00\n    /* \"#utility.yul\":5305:5308   */\n  dup2\n    /* \"#utility.yul\":5297:5308   */\n  swap1\n  pop\n    /* \"#utility.yul\":5328:5331   */\n  dup2\n    /* \"#utility.yul\":5325:5326   */\n  0x00\n    /* \"#utility.yul\":5318:5332   */\n  mstore\n    /* \"#utility.yul\":5362:5366   */\n  0x20\n    /* \"#utility.yul\":5359:5360   */\n  0x00\n    /* \"#utility.yul\":5349:5367   */\n  keccak256\n    /* \"#utility.yul\":5341:5367   */\n  swap1\n  pop\n    /* \"#utility.yul\":5234:5374   */\n  swap2\n  swap1\n  pop\n  jump\t// out\n    /* \"#utility.yul\":5380:5921   */\ntag_28:\n    /* \"#utility.yul\":5480:5482   */\n  0x1f\n    /* \"#utility.yul\":5475:5478   */\n  dup3\n    /* \"#utility.yul\":5472:5483   */\n  gt\n    /* \"#utility.yul\":5469:5914   */\n  iszero\n  tag_93\n  jumpi\n    /* \"#utility.yul\":5514:5551   */\n  tag_94\n    /* \"#utility.yul\":5545:5550   */\n  dup2\n    /* \"#utility.yul\":5514:5551   */\n  tag_27\n  jump\t// in\ntag_94:\n    /* \"#utility.yul\":5597:5626   */\n  tag_95\n    /* \"#utility.yul\":5615:5625   */\n  dup5\n    /* \"#utility.yul\":5597:5626   */\n  tag_12\n  jump\t// in\ntag_95:\n    /* \"#utility.yul\":5587:5595   */\n  dup2\n    /* \"#utility.yul\":5583:5627   */\n  add\n    /* \"#utility.yul\":5780:5782   */\n  0x20\n    /* \"#utility.yul\":5768:5778   */\n  dup6\n    /* \"#utility.yul\":5765:5783   */\n  lt\n    /* \"#utility.yul\":5762:5811   */\n  iszero\n  tag_96\n  jumpi\n    /* \"#utility.yul\":5801:5809   */\n  dup2\n    /* \"#utility.yul\":5786:5809   */\n  swap1\n  pop\n    /* \"#utility.yul\":5762:5811   */\ntag_96:\n    /* \"#utility.yul\":5824:5904   */\n  tag_97\n    /* \"#utility.yul\":5880:5902   */\n  tag_98\n    /* \"#utility.yul\":5898:5901   */\n  dup6\n    /* \"#utility.yul\":5880:5902   */\n  tag_12\n  jump\t// in\ntag_98:\n    /* \"#utility.yul\":5870:5878   */\n  dup4\n    /* \"#utility.yul\":5866:5903   */\n  add\n    /* \"#utility.yul\":5853:5864   */\n  dup3\n    /* \"#utility.yul\":5824:5904   */\n  tag_22\n  jump\t// in\ntag_97:\n    /* \"#utility.yul\":5484:5914   */\n  pop\n  pop\n    /* \"#utility.yul\":5469:5914   */\ntag_93:\n    /* \"#utility.yul\":5380:5921   */\n  pop\n  pop\n  pop\n  jump\t// out\n    /* \"#utility.yul\":5927:7319   */\ntag_4:\n    /* \"#utility.yul\":6043:6080   */\n  tag_100\n    /* \"#utility.yul\":6076:6079   */\n  dup3\n    /* \"#utility.yul\":6043:6080   */\n  tag_7\n  jump\t// in\ntag_100:\n    /* \"#utility.yul\":6145:6163   */\n  0xffffffffffffffff\n    /* \"#utility.yul\":6137:6143   */\n  dup2\n    /* \"#utility.yul\":6134:6164   */\n  gt\n    /* \"#utility.yul\":6131:6187   */\n  iszero\n  tag_101\n  jumpi\n    /* \"#utility.yul\":6167:6185   */\n  tag_102\n  tag_8\n  jump\t// in\ntag_102:\n    /* \"#utility.yul\":6131:6187   */\ntag_101:\n    /* \"#utility.yul\":6211:6249   */\n  tag_103\n    /* \"#utility.yul\":6243:6247   */\n  dup3\n    /* \"#utility.yul\":6237:6248   */\n  sload\n    /* \"#utility.yul\":6211:6249   */\n  tag_10\n  jump\t// in\ntag_103:\n    /* \"#utility.yul\":6296:6362   */\n  tag_104\n    /* \"#utility.yul\":6355:6361   */\n  dup3\n    /* \"#utility.yul\":6347:6353   */\n  dup3\n    /* \"#utility.yul\":6341:6345   */\n  dup6\n    /* \"#utility.yul\":6296:6362   */\n  tag_28\n  jump\t// in\ntag_104:\n    /* \"#utility.yul\":6389:6390   */\n  0x00\n    /* \"#utility.yul\":6413:6417   */\n  0x20\n    /* \"#utility.yul\":6400:6417   */\n  swap1\n  pop\n    /* \"#utility.yul\":6445:6447   */\n  0x1f\n    /* \"#utility.yul\":6437:6443   */\n  dup4\n    /* \"#utility.yul\":6434:6448   */\n  gt\n    /* \"#utility.yul\":6462:6463   */\n  0x01\n    /* \"#utility.yul\":6457:7074   */\n  dup2\n  eq\n  tag_106\n  jumpi\n    /* \"#utility.yul\":7118:7119   */\n  0x00\n    /* \"#utility.yul\":7135:7141   */\n  dup5\n    /* \"#utility.yul\":7132:7209   */\n  iszero\n  tag_107\n  jumpi\n    /* \"#utility.yul\":7184:7193   */\n  dup3\n    /* \"#utility.yul\":7179:7182   */\n  dup8\n    /* \"#utility.yul\":7175:7194   */\n  add\n    /* \"#utility.yul\":7169:7195   */\n  mload\n    /* \"#utility.yul\":7160:7195   */\n  swap1\n  pop\n    /* \"#utility.yul\":7132:7209   */\ntag_107:\n    /* \"#utility.yul\":7235:7302   */\n  tag_108\n    /* \"#utility.yul\":7295:7301   */\n  dup6\n    /* \"#utility.yul\":7288:7293   */\n  dup3\n    /* \"#utility.yul\":7235:7302   */\n  tag_26\n  jump\t// in\ntag_108:\n    /* \"#utility.yul\":7229:7233   */\n  dup7\n    /* \"#utility.yul\":7222:7303   */\n  sstore\n    /* \"#utility.yul\":7091:7313   */\n  pop\n    /* \"#utility.yul\":6427:7313   */\n  jump(tag_105)\n    /* \"#utility.yul\":6457:7074   */\ntag_106:\n    /* \"#utility.yul\":6509:6513   */\n  0x1f\n    /* \"#utility.yul\":6505:6514   */\n  not\n    /* \"#utility.yul\":6497:6503   */\n  dup5\n    /* \"#utility.yul\":6493:6515   */\n  and\n    /* \"#utility.yul\":6543:6579   */\n  tag_109\n    /* \"#utility.yul\":6574:6578   */\n  dup7\n    /* \"#utility.yul\":6543:6579   */\n  tag_27\n  jump\t// in\ntag_109:\n    /* \"#utility.yul\":6601:6602   */\n  0x00\n    /* \"#utility.yul\":6615:6823   */\ntag_110:\n    /* \"#utility.yul\":6629:6636   */\n  dup3\n    /* \"#utility.yul\":6626:6627   */\n  dup2\n    /* \"#utility.yul\":6623:6637   */\n  lt\n    /* \"#utility.yul\":6615:6823   */\n  iszero\n  tag_112\n  jumpi\n    /* \"#utility.yul\":6708:6717   */\n  dup5\n    /* \"#utility.yul\":6703:6706   */\n  dup10\n    /* \"#utility.yul\":6699:6718   */\n  add\n    /* \"#utility.yul\":6693:6719   */\n  mload\n    /* \"#utility.yul\":6685:6691   */\n  dup3\n    /* \"#utility.yul\":6678:6720   */\n  sstore\n    /* \"#utility.yul\":6759:6760   */\n  0x01\n    /* \"#utility.yul\":6751:6757   */\n  dup3\n    /* \"#utility.yul\":6747:6761   */\n  add\n    /* \"#utility.yul\":6737:6761   */\n  swap2\n  pop\n    /* \"#utility.yul\":6806:6808   */\n  0x20\n    /* \"#utility.yul\":6795:6804   */\n  dup6\n    /* \"#utility.yul\":6791:6809   */\n  add\n    /* \"#utility.yul\":6778:6809   */\n  swap5\n  pop\n    /* \"#utility.yul\":6652:6656   */\n  0x20\n    /* \"#utility.yul\":6649:6650   */\n  dup2\n    /* \"#utility.yul\":6645:6657   */\n  add\n    /* \"#utility.yul\":6640:6657   */\n  swap1\n  pop\n    /* \"#utility.yul\":6615:6823   */\n  jump(tag_110)\ntag_112:\n    /* \"#utility.yul\":6851:6857   */\n  dup7\n    /* \"#utility.yul\":6842:6849   */\n  dup4\n    /* \"#utility.yul\":6839:6858   */\n  lt\n    /* \"#utility.yul\":6836:7015   */\n  iszero\n  tag_113\n  jumpi\n    /* \"#utility.yul\":6909:6918   */\n  dup5\n    /* \"#utility.yul\":6904:6907   */\n  dup10\n    /* \"#utility.yul\":6900:6919   */\n  add\n    /* \"#utility.yul\":6894:6920   */\n  mload\n    /* \"#utility.yul\":6952:7000   */\n  tag_114\n    /* \"#utility.yul\":6994:6998   */\n  0x1f\n    /* \"#utility.yul\":6986:6992   */\n  dup10\n    /* \"#utility.yul\":6982:6999   */\n  and\n    /* \"#utility.yul\":6971:6980   */\n  dup3\n    /* \"#utility.yul\":6952:7000   */\n  tag_25\n  jump\t// in\ntag_114:\n    /* \"#utility.yul\":6944:6950   */\n  dup4\n    /* \"#utility.yul\":6937:7001   */\n  sstore\n    /* \"#utility.yul\":6859:7015   */\n  pop\n    /* \"#utility.yul\":6836:7015   */\ntag_113:\n    /* \"#utility.yul\":7061:7062   */\n  0x01\n    /* \"#utility.yul\":7057:7058   */\n  0x02\n    /* \"#utility.yul\":7049:7055   */\n  dup9\n    /* \"#utility.yul\":7045:7059   */\n  mul\n    /* \"#utility.yul\":7041:7063   */\n  add\n    /* \"#utility.yul\":7035:7039   */\n  dup9\n    /* \"#utility.yul\":7028:7064   */\n  sstore\n    /* \"#utility.yul\":6464:7074   */\n  pop\n  pop\n  pop\n    /* \"#utility.yul\":6427:7313   */\ntag_105:\n  pop\n    /* \"#utility.yul\":6018:7319   */\n  pop\n  pop\n  pop\n    /* \"#utility.yul\":5927:7319   */\n  pop\n  pop\n  jump\t// out\n    /* \"contracts/24_ExampleStrings.sol\":61:572  contract ExampleStrings {... */\ntag_6:\n  dataSize(sub_0)\n  dup1\n  dataOffset(sub_0)\n  0x00\n  codecopy\n  0x00\n  return\nstop\n\nsub_0: assembly {\n        /* \"contracts/24_ExampleStrings.sol\":61:572  contract ExampleStrings {... */\n      mstore(0x40, 0x80)\n      callvalue\n      dup1\n      iszero\n      tag_1\n      jumpi\n      0x00\n      dup1\n      revert\n    tag_1:\n      pop\n      jumpi(tag_2, lt(calldatasize, 0x04))\n      shr(0xe0, calldataload(0x00))\n      dup1\n      0x07da3eae\n      eq\n      tag_3\n      jumpi\n      dup1\n      0x492bfa18\n      eq\n      tag_4\n      jumpi\n      dup1\n      0x712f4602\n      eq\n      tag_5\n      jumpi\n      dup1\n      0x7c66d013\n      eq\n      tag_6\n      jumpi\n      dup1\n      0x82180568\n      eq\n      tag_7\n      jumpi\n    tag_2:\n      0x00\n      dup1\n      revert\n        /* \"contracts/24_ExampleStrings.sol\":475:567  function getBytesLength() public view returns(uint) {... */\n    tag_3:\n      tag_8\n      tag_9\n      jump\t// in\n    tag_8:\n      mload(0x40)\n      tag_10\n      swap2\n      swap1\n      tag_11\n      jump\t// in\n    tag_10:\n      mload(0x40)\n      dup1\n      swap2\n      sub\n      swap1\n      return\n        /* \"contracts/24_ExampleStrings.sol\":94:132  string public myString = \"Hello, Hell\" */\n    tag_4:\n      tag_12\n      tag_13\n      jump\t// in\n    tag_12:\n      mload(0x40)\n      tag_14\n      swap2\n      swap1\n      tag_15\n      jump\t// in\n    tag_14:\n      mload(0x40)\n      dup1\n      swap2\n      sub\n      swap1\n      return\n        /* \"contracts/24_ExampleStrings.sol\":139:175  bytes public myBytes = \"Hello, Hell\" */\n    tag_5:\n      tag_16\n      tag_17\n      jump\t// in\n    tag_16:\n      mload(0x40)\n      tag_18\n      swap2\n      swap1\n      tag_19\n      jump\t// in\n    tag_18:\n      mload(0x40)\n      dup1\n      swap2\n      sub\n      swap1\n      return\n        /* \"contracts/24_ExampleStrings.sol\":285:467  function compareTwoString(string memory _myString) public view returns(bool) {... */\n    tag_6:\n      tag_20\n      0x04\n      dup1\n      calldatasize\n      sub\n      dup2\n      add\n      swap1\n      tag_21\n      swap2\n      swap1\n      tag_22\n      jump\t// in\n    tag_21:\n      tag_23\n      jump\t// in\n    tag_20:\n      mload(0x40)\n      tag_24\n      swap2\n      swap1\n      tag_25\n      jump\t// in\n    tag_24:\n      mload(0x40)\n      dup1\n      swap2\n      sub\n      swap1\n      return\n        /* \"contracts/24_ExampleStrings.sol\":184:277  function setMyString(string memory _myString) public  {... */\n    tag_7:\n      tag_26\n      0x04\n      dup1\n      calldatasize\n      sub\n      dup2\n      add\n      swap1\n      tag_27\n      swap2\n      swap1\n      tag_22\n      jump\t// in\n    tag_27:\n      tag_28\n      jump\t// in\n    tag_26:\n      stop\n        /* \"contracts/24_ExampleStrings.sol\":475:567  function getBytesLength() public view returns(uint) {... */\n    tag_9:\n        /* \"contracts/24_ExampleStrings.sol\":521:525  uint */\n      0x00\n        /* \"contracts/24_ExampleStrings.sol\":545:552  myBytes */\n      0x01\n        /* \"contracts/24_ExampleStrings.sol\":545:559  myBytes.length */\n      dup1\n      sload\n      tag_30\n      swap1\n      tag_31\n      jump\t// in\n    tag_30:\n      swap1\n      pop\n        /* \"contracts/24_ExampleStrings.sol\":538:559  return myBytes.length */\n      swap1\n      pop\n        /* \"contracts/24_ExampleStrings.sol\":475:567  function getBytesLength() public view returns(uint) {... */\n      swap1\n      jump\t// out\n        /* \"contracts/24_ExampleStrings.sol\":94:132  string public myString = \"Hello, Hell\" */\n    tag_13:\n      0x00\n      dup1\n      sload\n      tag_32\n      swap1\n      tag_31\n      jump\t// in\n    tag_32:\n      dup1\n      0x1f\n      add\n      0x20\n      dup1\n      swap2\n      div\n      mul\n      0x20\n      add\n      mload(0x40)\n      swap1\n      dup2\n      add\n      0x40\n      mstore\n      dup1\n      swap3\n      swap2\n      swap1\n      dup2\n      dup2\n      mstore\n      0x20\n      add\n      dup3\n      dup1\n      sload\n      tag_33\n      swap1\n      tag_31\n      jump\t// in\n    tag_33:\n      dup1\n      iszero\n      tag_34\n      jumpi\n      dup1\n      0x1f\n      lt\n      tag_35\n      jumpi\n      0x0100\n      dup1\n      dup4\n      sload\n      div\n      mul\n      dup4\n      mstore\n      swap2\n      0x20\n      add\n      swap2\n      jump(tag_34)\n    tag_35:\n      dup3\n      add\n      swap2\n      swap1\n      0x00\n      mstore\n      keccak256(0x00, 0x20)\n      swap1\n    tag_36:\n      dup2\n      sload\n      dup2\n      mstore\n      swap1\n      0x01\n      add\n      swap1\n      0x20\n      add\n      dup1\n      dup4\n      gt\n      tag_36\n      jumpi\n      dup3\n      swap1\n      sub\n      0x1f\n      and\n      dup3\n      add\n      swap2\n    tag_34:\n      pop\n      pop\n      pop\n      pop\n      pop\n      dup2\n      jump\t// out\n        /* \"contracts/24_ExampleStrings.sol\":139:175  bytes public myBytes = \"Hello, Hell\" */\n    tag_17:\n      0x01\n      dup1\n      sload\n      tag_37\n      swap1\n      tag_31\n      jump\t// in\n    tag_37:\n      dup1\n      0x1f\n      add\n      0x20\n      dup1\n      swap2\n      div\n      mul\n      0x20\n      add\n      mload(0x40)\n      swap1\n      dup2\n      add\n      0x40\n      mstore\n      dup1\n      swap3\n      swap2\n      swap1\n      dup2\n      dup2\n      mstore\n      0x20\n      add\n      dup3\n      dup1\n      sload\n      tag_38\n      swap1\n      tag_31\n      jump\t// in\n    tag_38:\n      dup1\n      iszero\n      tag_39\n      jumpi\n      dup1\n      0x1f\n      lt\n      tag_40\n      jumpi\n      0x0100\n      dup1\n      dup4\n      sload\n      div\n      mul\n      dup4\n      mstore\n      swap2\n      0x20\n      add\n      swap2\n      jump(tag_39)\n    tag_40:\n      dup3\n      add\n      swap2\n      swap1\n      0x00\n      mstore\n      keccak256(0x00, 0x20)\n      swap1\n    tag_41:\n      dup2\n      sload\n      dup2\n      mstore\n      swap1\n      0x01\n      add\n      swap1\n      0x20\n      add\n      dup1\n      dup4\n      gt\n      tag_41\n      jumpi\n      dup3\n      swap1\n      sub\n      0x1f\n      and\n      dup3\n      add\n      swap2\n    tag_39:\n      pop\n      pop\n      pop\n      pop\n      pop\n      dup2\n      jump\t// out\n        /* \"contracts/24_ExampleStrings.sol\":285:467  function compareTwoString(string memory _myString) public view returns(bool) {... */\n    tag_23:\n        /* \"contracts/24_ExampleStrings.sol\":356:360  bool */\n      0x00\n        /* \"contracts/24_ExampleStrings.sol\":448:457  _myString */\n      dup2\n        /* \"contracts/24_ExampleStrings.sol\":431:458  abi.encodePacked(_myString) */\n      add(0x20, mload(0x40))\n      tag_43\n      swap2\n      swap1\n      tag_44\n      jump\t// in\n    tag_43:\n      mload(0x40)\n      0x20\n      dup2\n      dup4\n      sub\n      sub\n      dup2\n      mstore\n      swap1\n      0x40\n      mstore\n        /* \"contracts/24_ExampleStrings.sol\":421:459  keccak256(abi.encodePacked(_myString)) */\n      dup1\n      mload\n      swap1\n      0x20\n      add\n      keccak256\n        /* \"contracts/24_ExampleStrings.sol\":407:415  myString */\n      0x00\n        /* \"contracts/24_ExampleStrings.sol\":390:416  abi.encodePacked(myString) */\n      add(0x20, mload(0x40))\n      tag_45\n      swap2\n      swap1\n      tag_46\n      jump\t// in\n    tag_45:\n      mload(0x40)\n      0x20\n      dup2\n      dup4\n      sub\n      sub\n      dup2\n      mstore\n      swap1\n      0x40\n      mstore\n        /* \"contracts/24_ExampleStrings.sol\":380:417  keccak256(abi.encodePacked(myString)) */\n      dup1\n      mload\n      swap1\n      0x20\n      add\n      keccak256\n        /* \"contracts/24_ExampleStrings.sol\":380:459  keccak256(abi.encodePacked(myString)) == keccak256(abi.encodePacked(_myString)) */\n      eq\n        /* \"contracts/24_ExampleStrings.sol\":373:459  return keccak256(abi.encodePacked(myString)) == keccak256(abi.encodePacked(_myString)) */\n      swap1\n      pop\n        /* \"contracts/24_ExampleStrings.sol\":285:467  function compareTwoString(string memory _myString) public view returns(bool) {... */\n      swap2\n      swap1\n      pop\n      jump\t// out\n        /* \"contracts/24_ExampleStrings.sol\":184:277  function setMyString(string memory _myString) public  {... */\n    tag_28:\n        /* \"contracts/24_ExampleStrings.sol\":260:269  _myString */\n      dup1\n        /* \"contracts/24_ExampleStrings.sol\":249:257  myString */\n      0x00\n        /* \"contracts/24_ExampleStrings.sol\":249:269  myString = _myString */\n      swap1\n      dup2\n      tag_48\n      swap2\n      swap1\n      tag_49\n      jump\t// in\n    tag_48:\n      pop\n        /* \"contracts/24_ExampleStrings.sol\":184:277  function setMyString(string memory _myString) public  {... */\n      pop\n      jump\t// out\n        /* \"#utility.yul\":7:84   */\n    tag_50:\n        /* \"#utility.yul\":44:51   */\n      0x00\n        /* \"#utility.yul\":73:78   */\n      dup2\n        /* \"#utility.yul\":62:78   */\n      swap1\n      pop\n        /* \"#utility.yul\":7:84   */\n      swap2\n      swap1\n      pop\n      jump\t// out\n        /* \"#utility.yul\":90:208   */\n    tag_51:\n        /* \"#utility.yul\":177:201   */\n      tag_96\n        /* \"#utility.yul\":195:200   */\n      dup2\n        /* \"#utility.yul\":177:201   */\n      tag_50\n      jump\t// in\n    tag_96:\n        /* \"#utility.yul\":172:175   */\n      dup3\n        /* \"#utility.yul\":165:202   */\n      mstore\n        /* \"#utility.yul\":90:208   */\n      pop\n      pop\n      jump\t// out\n        /* \"#utility.yul\":214:436   */\n    tag_11:\n        /* \"#utility.yul\":307:311   */\n      0x00\n        /* \"#utility.yul\":345:347   */\n      0x20\n        /* \"#utility.yul\":334:343   */\n      dup3\n        /* \"#utility.yul\":330:348   */\n      add\n        /* \"#utility.yul\":322:348   */\n      swap1\n      pop\n        /* \"#utility.yul\":358:429   */\n      tag_98\n        /* \"#utility.yul\":426:427   */\n      0x00\n        /* \"#utility.yul\":415:424   */\n      dup4\n        /* \"#utility.yul\":411:428   */\n      add\n        /* \"#utility.yul\":402:408   */\n      dup5\n        /* \"#utility.yul\":358:429   */\n      tag_51\n      jump\t// in\n    tag_98:\n        /* \"#utility.yul\":214:436   */\n      swap3\n      swap2\n      pop\n      pop\n      jump\t// out\n        /* \"#utility.yul\":442:541   */\n    tag_52:\n        /* \"#utility.yul\":494:500   */\n      0x00\n        /* \"#utility.yul\":528:533   */\n      dup2\n        /* \"#utility.yul\":522:534   */\n      mload\n        /* \"#utility.yul\":512:534   */\n      swap1\n      pop\n        /* \"#utility.yul\":442:541   */\n      swap2\n      swap1\n      pop\n      jump\t// out\n        /* \"#utility.yul\":547:716   */\n    tag_53:\n        /* \"#utility.yul\":631:642   */\n      0x00\n        /* \"#utility.yul\":665:671   */\n      dup3\n        /* \"#utility.yul\":660:663   */\n      dup3\n        /* \"#utility.yul\":653:672   */\n      mstore\n        /* \"#utility.yul\":705:709   */\n      0x20\n        /* \"#utility.yul\":700:703   */\n      dup3\n        /* \"#utility.yul\":696:710   */\n      add\n        /* \"#utility.yul\":681:710   */\n      swap1\n      pop\n        /* \"#utility.yul\":547:716   */\n      swap3\n      swap2\n      pop\n      pop\n      jump\t// out\n        /* \"#utility.yul\":722:968   */\n    tag_54:\n        /* \"#utility.yul\":803:804   */\n      0x00\n        /* \"#utility.yul\":813:926   */\n    tag_102:\n        /* \"#utility.yul\":827:833   */\n      dup4\n        /* \"#utility.yul\":824:825   */\n      dup2\n        /* \"#utility.yul\":821:834   */\n      lt\n        /* \"#utility.yul\":813:926   */\n      iszero\n      tag_104\n      jumpi\n        /* \"#utility.yul\":912:913   */\n      dup1\n        /* \"#utility.yul\":907:910   */\n      dup3\n        /* \"#utility.yul\":903:914   */\n      add\n        /* \"#utility.yul\":897:915   */\n      mload\n        /* \"#utility.yul\":893:894   */\n      dup2\n        /* \"#utility.yul\":888:891   */\n      dup5\n        /* \"#utility.yul\":884:895   */\n      add\n        /* \"#utility.yul\":877:916   */\n      mstore\n        /* \"#utility.yul\":849:851   */\n      0x20\n        /* \"#utility.yul\":846:847   */\n      dup2\n        /* \"#utility.yul\":842:852   */\n      add\n        /* \"#utility.yul\":837:852   */\n      swap1\n      pop\n        /* \"#utility.yul\":813:926   */\n      jump(tag_102)\n    tag_104:\n        /* \"#utility.yul\":960:961   */\n      0x00\n        /* \"#utility.yul\":951:957   */\n      dup5\n        /* \"#utility.yul\":946:949   */\n      dup5\n        /* \"#utility.yul\":942:958   */\n      add\n        /* \"#utility.yul\":935:962   */\n      mstore\n        /* \"#utility.yul\":784:968   */\n      pop\n        /* \"#utility.yul\":722:968   */\n      pop\n      pop\n      pop\n      jump\t// out\n        /* \"#utility.yul\":974:1076   */\n    tag_55:\n        /* \"#utility.yul\":1015:1021   */\n      0x00\n        /* \"#utility.yul\":1066:1068   */\n      0x1f\n        /* \"#utility.yul\":1062:1069   */\n      not\n        /* \"#utility.yul\":1057:1059   */\n      0x1f\n        /* \"#utility.yul\":1050:1055   */\n      dup4\n        /* \"#utility.yul\":1046:1060   */\n      add\n        /* \"#utility.yul\":1042:1070   */\n      and\n        /* \"#utility.yul\":1032:1070   */\n      swap1\n      pop\n        /* \"#utility.yul\":974:1076   */\n      swap2\n      swap1\n      pop\n      jump\t// out\n        /* \"#utility.yul\":1082:1459   */\n    tag_56:\n        /* \"#utility.yul\":1170:1173   */\n      0x00\n        /* \"#utility.yul\":1198:1237   */\n      tag_107\n        /* \"#utility.yul\":1231:1236   */\n      dup3\n        /* \"#utility.yul\":1198:1237   */\n      tag_52\n      jump\t// in\n    tag_107:\n        /* \"#utility.yul\":1253:1324   */\n      tag_108\n        /* \"#utility.yul\":1317:1323   */\n      dup2\n        /* \"#utility.yul\":1312:1315   */\n      dup6\n        /* \"#utility.yul\":1253:1324   */\n      tag_53\n      jump\t// in\n    tag_108:\n        /* \"#utility.yul\":1246:1324   */\n      swap4\n      pop\n        /* \"#utility.yul\":1333:1398   */\n      tag_109\n        /* \"#utility.yul\":1391:1397   */\n      dup2\n        /* \"#utility.yul\":1386:1389   */\n      dup6\n        /* \"#utility.yul\":1379:1383   */\n      0x20\n        /* \"#utility.yul\":1372:1377   */\n      dup7\n        /* \"#utility.yul\":1368:1384   */\n      add\n        /* \"#utility.yul\":1333:1398   */\n      tag_54\n      jump\t// in\n    tag_109:\n        /* \"#utility.yul\":1423:1452   */\n      tag_110\n        /* \"#utility.yul\":1445:1451   */\n      dup2\n        /* \"#utility.yul\":1423:1452   */\n      tag_55\n      jump\t// in\n    tag_110:\n        /* \"#utility.yul\":1418:1421   */\n      dup5\n        /* \"#utility.yul\":1414:1453   */\n      add\n        /* \"#utility.yul\":1407:1453   */\n      swap2\n      pop\n        /* \"#utility.yul\":1174:1459   */\n      pop\n        /* \"#utility.yul\":1082:1459   */\n      swap3\n      swap2\n      pop\n      pop\n      jump\t// out\n        /* \"#utility.yul\":1465:1778   */\n    tag_15:\n        /* \"#utility.yul\":1578:1582   */\n      0x00\n        /* \"#utility.yul\":1616:1618   */\n      0x20\n        /* \"#utility.yul\":1605:1614   */\n      dup3\n        /* \"#utility.yul\":1601:1619   */\n      add\n        /* \"#utility.yul\":1593:1619   */\n      swap1\n      pop\n        /* \"#utility.yul\":1665:1674   */\n      dup2\n        /* \"#utility.yul\":1659:1663   */\n      dup2\n        /* \"#utility.yul\":1655:1675   */\n      sub\n        /* \"#utility.yul\":1651:1652   */\n      0x00\n        /* \"#utility.yul\":1640:1649   */\n      dup4\n        /* \"#utility.yul\":1636:1653   */\n      add\n        /* \"#utility.yul\":1629:1676   */\n      mstore\n        /* \"#utility.yul\":1693:1771   */\n      tag_112\n        /* \"#utility.yul\":1766:1770   */\n      dup2\n        /* \"#utility.yul\":1757:1763   */\n      dup5\n        /* \"#utility.yul\":1693:1771   */\n      tag_56\n      jump\t// in\n    tag_112:\n        /* \"#utility.yul\":1685:1771   */\n      swap1\n      pop\n        /* \"#utility.yul\":1465:1778   */\n      swap3\n      swap2\n      pop\n      pop\n      jump\t// out\n        /* \"#utility.yul\":1784:1882   */\n    tag_57:\n        /* \"#utility.yul\":1835:1841   */\n      0x00\n        /* \"#utility.yul\":1869:1874   */\n      dup2\n        /* \"#utility.yul\":1863:1875   */\n      mload\n        /* \"#utility.yul\":1853:1875   */\n      swap1\n      pop\n        /* \"#utility.yul\":1784:1882   */\n      swap2\n      swap1\n      pop\n      jump\t// out\n        /* \"#utility.yul\":1888:2056   */\n    tag_58:\n        /* \"#utility.yul\":1971:1982   */\n      0x00\n        /* \"#utility.yul\":2005:2011   */\n      dup3\n        /* \"#utility.yul\":2000:2003   */\n      dup3\n        /* \"#utility.yul\":1993:2012   */\n      mstore\n        /* \"#utility.yul\":2045:2049   */\n      0x20\n        /* \"#utility.yul\":2040:2043   */\n      dup3\n        /* \"#utility.yul\":2036:2050   */\n      add\n        /* \"#utility.yul\":2021:2050   */\n      swap1\n      pop\n        /* \"#utility.yul\":1888:2056   */\n      swap3\n      swap2\n      pop\n      pop\n      jump\t// out\n        /* \"#utility.yul\":2062:2435   */\n    tag_59:\n        /* \"#utility.yul\":2148:2151   */\n      0x00\n        /* \"#utility.yul\":2176:2214   */\n      tag_116\n        /* \"#utility.yul\":2208:2213   */\n      dup3\n        /* \"#utility.yul\":2176:2214   */\n      tag_57\n      jump\t// in\n    tag_116:\n        /* \"#utility.yul\":2230:2300   */\n      tag_117\n        /* \"#utility.yul\":2293:2299   */\n      dup2\n        /* \"#utility.yul\":2288:2291   */\n      dup6\n        /* \"#utility.yul\":2230:2300   */\n      tag_58\n      jump\t// in\n    tag_117:\n        /* \"#utility.yul\":2223:2300   */\n      swap4\n      pop\n        /* \"#utility.yul\":2309:2374   */\n      tag_118\n        /* \"#utility.yul\":2367:2373   */\n      dup2\n        /* \"#utility.yul\":2362:2365   */\n      dup6\n        /* \"#utility.yul\":2355:2359   */\n      0x20\n        /* \"#utility.yul\":2348:2353   */\n      dup7\n        /* \"#utility.yul\":2344:2360   */\n      add\n        /* \"#utility.yul\":2309:2374   */\n      tag_54\n      jump\t// in\n    tag_118:\n        /* \"#utility.yul\":2399:2428   */\n      tag_119\n        /* \"#utility.yul\":2421:2427   */\n      dup2\n        /* \"#utility.yul\":2399:2428   */\n      tag_55\n      jump\t// in\n    tag_119:\n        /* \"#utility.yul\":2394:2397   */\n      dup5\n        /* \"#utility.yul\":2390:2429   */\n      add\n        /* \"#utility.yul\":2383:2429   */\n      swap2\n      pop\n        /* \"#utility.yul\":2152:2435   */\n      pop\n        /* \"#utility.yul\":2062:2435   */\n      swap3\n      swap2\n      pop\n      pop\n      jump\t// out\n        /* \"#utility.yul\":2441:2750   */\n    tag_19:\n        /* \"#utility.yul\":2552:2556   */\n      0x00\n        /* \"#utility.yul\":2590:2592   */\n      0x20\n        /* \"#utility.yul\":2579:2588   */\n      dup3\n        /* \"#utility.yul\":2575:2593   */\n      add\n        /* \"#utility.yul\":2567:2593   */\n      swap1\n      pop\n        /* \"#utility.yul\":2639:2648   */\n      dup2\n        /* \"#utility.yul\":2633:2637   */\n      dup2\n        /* \"#utility.yul\":2629:2649   */\n      sub\n        /* \"#utility.yul\":2625:2626   */\n      0x00\n        /* \"#utility.yul\":2614:2623   */\n      dup4\n        /* \"#utility.yul\":2610:2627   */\n      add\n        /* \"#utility.yul\":2603:2650   */\n      mstore\n        /* \"#utility.yul\":2667:2743   */\n      tag_121\n        /* \"#utility.yul\":2738:2742   */\n      dup2\n        /* \"#utility.yul\":2729:2735   */\n      dup5\n        /* \"#utility.yul\":2667:2743   */\n      tag_59\n      jump\t// in\n    tag_121:\n        /* \"#utility.yul\":2659:2743   */\n      swap1\n      pop\n        /* \"#utility.yul\":2441:2750   */\n      swap3\n      swap2\n      pop\n      pop\n      jump\t// out\n        /* \"#utility.yul\":2756:2831   */\n    tag_60:\n        /* \"#utility.yul\":2789:2795   */\n      0x00\n        /* \"#utility.yul\":2822:2824   */\n      0x40\n        /* \"#utility.yul\":2816:2825   */\n      mload\n        /* \"#utility.yul\":2806:2825   */\n      swap1\n      pop\n        /* \"#utility.yul\":2756:2831   */\n      swap1\n      jump\t// out\n        /* \"#utility.yul\":2837:2954   */\n    tag_61:\n        /* \"#utility.yul\":2946:2947   */\n      0x00\n        /* \"#utility.yul\":2943:2944   */\n      dup1\n        /* \"#utility.yul\":2936:2948   */\n      revert\n        /* \"#utility.yul\":2960:3077   */\n    tag_62:\n        /* \"#utility.yul\":3069:3070   */\n      0x00\n        /* \"#utility.yul\":3066:3067   */\n      dup1\n        /* \"#utility.yul\":3059:3071   */\n      revert\n        /* \"#utility.yul\":3083:3200   */\n    tag_63:\n        /* \"#utility.yul\":3192:3193   */\n      0x00\n        /* \"#utility.yul\":3189:3190   */\n      dup1\n        /* \"#utility.yul\":3182:3194   */\n      revert\n        /* \"#utility.yul\":3206:3323   */\n    tag_64:\n        /* \"#utility.yul\":3315:3316   */\n      0x00\n        /* \"#utility.yul\":3312:3313   */\n      dup1\n        /* \"#utility.yul\":3305:3317   */\n      revert\n        /* \"#utility.yul\":3329:3509   */\n    tag_65:\n        /* \"#utility.yul\":3377:3454   */\n      0x4e487b7100000000000000000000000000000000000000000000000000000000\n        /* \"#utility.yul\":3374:3375   */\n      0x00\n        /* \"#utility.yul\":3367:3455   */\n      mstore\n        /* \"#utility.yul\":3474:3478   */\n      0x41\n        /* \"#utility.yul\":3471:3472   */\n      0x04\n        /* \"#utility.yul\":3464:3479   */\n      mstore\n        /* \"#utility.yul\":3498:3502   */\n      0x24\n        /* \"#utility.yul\":3495:3496   */\n      0x00\n        /* \"#utility.yul\":3488:3503   */\n      revert\n        /* \"#utility.yul\":3515:3796   */\n    tag_66:\n        /* \"#utility.yul\":3598:3625   */\n      tag_129\n        /* \"#utility.yul\":3620:3624   */\n      dup3\n        /* \"#utility.yul\":3598:3625   */\n      tag_55\n      jump\t// in\n    tag_129:\n        /* \"#utility.yul\":3590:3596   */\n      dup2\n        /* \"#utility.yul\":3586:3626   */\n      add\n        /* \"#utility.yul\":3728:3734   */\n      dup2\n        /* \"#utility.yul\":3716:3726   */\n      dup2\n        /* \"#utility.yul\":3713:3735   */\n      lt\n        /* \"#utility.yul\":3692:3710   */\n      0xffffffffffffffff\n        /* \"#utility.yul\":3680:3690   */\n      dup3\n        /* \"#utility.yul\":3677:3711   */\n      gt\n        /* \"#utility.yul\":3674:3736   */\n      or\n        /* \"#utility.yul\":3671:3759   */\n      iszero\n      tag_130\n      jumpi\n        /* \"#utility.yul\":3739:3757   */\n      tag_131\n      tag_65\n      jump\t// in\n    tag_131:\n        /* \"#utility.yul\":3671:3759   */\n    tag_130:\n        /* \"#utility.yul\":3779:3789   */\n      dup1\n        /* \"#utility.yul\":3775:3777   */\n      0x40\n        /* \"#utility.yul\":3768:3790   */\n      mstore\n        /* \"#utility.yul\":3558:3796   */\n      pop\n        /* \"#utility.yul\":3515:3796   */\n      pop\n      pop\n      jump\t// out\n        /* \"#utility.yul\":3802:3931   */\n    tag_67:\n        /* \"#utility.yul\":3836:3842   */\n      0x00\n        /* \"#utility.yul\":3863:3883   */\n      tag_133\n      tag_60\n      jump\t// in\n    tag_133:\n        /* \"#utility.yul\":3853:3883   */\n      swap1\n      pop\n        /* \"#utility.yul\":3892:3925   */\n      tag_134\n        /* \"#utility.yul\":3920:3924   */\n      dup3\n        /* \"#utility.yul\":3912:3918   */\n      dup3\n        /* \"#utility.yul\":3892:3925   */\n      tag_66\n      jump\t// in\n    tag_134:\n        /* \"#utility.yul\":3802:3931   */\n      swap2\n      swap1\n      pop\n      jump\t// out\n        /* \"#utility.yul\":3937:4245   */\n    tag_68:\n        /* \"#utility.yul\":3999:4003   */\n      0x00\n        /* \"#utility.yul\":4089:4107   */\n      0xffffffffffffffff\n        /* \"#utility.yul\":4081:4087   */\n      dup3\n        /* \"#utility.yul\":4078:4108   */\n      gt\n        /* \"#utility.yul\":4075:4131   */\n      iszero\n      tag_136\n      jumpi\n        /* \"#utility.yul\":4111:4129   */\n      tag_137\n      tag_65\n      jump\t// in\n    tag_137:\n        /* \"#utility.yul\":4075:4131   */\n    tag_136:\n        /* \"#utility.yul\":4149:4178   */\n      tag_138\n        /* \"#utility.yul\":4171:4177   */\n      dup3\n        /* \"#utility.yul\":4149:4178   */\n      tag_55\n      jump\t// in\n    tag_138:\n        /* \"#utility.yul\":4141:4178   */\n      swap1\n      pop\n        /* \"#utility.yul\":4233:4237   */\n      0x20\n        /* \"#utility.yul\":4227:4231   */\n      dup2\n        /* \"#utility.yul\":4223:4238   */\n      add\n        /* \"#utility.yul\":4215:4238   */\n      swap1\n      pop\n        /* \"#utility.yul\":3937:4245   */\n      swap2\n      swap1\n      pop\n      jump\t// out\n        /* \"#utility.yul\":4251:4397   */\n    tag_69:\n        /* \"#utility.yul\":4348:4354   */\n      dup3\n        /* \"#utility.yul\":4343:4346   */\n      dup2\n        /* \"#utility.yul\":4338:4341   */\n      dup4\n        /* \"#utility.yul\":4325:4355   */\n      calldatacopy\n        /* \"#utility.yul\":4389:4390   */\n      0x00\n        /* \"#utility.yul\":4380:4386   */\n      dup4\n        /* \"#utility.yul\":4375:4378   */\n      dup4\n        /* \"#utility.yul\":4371:4387   */\n      add\n        /* \"#utility.yul\":4364:4391   */\n      mstore\n        /* \"#utility.yul\":4251:4397   */\n      pop\n      pop\n      pop\n      jump\t// out\n        /* \"#utility.yul\":4403:4828   */\n    tag_70:\n        /* \"#utility.yul\":4481:4486   */\n      0x00\n        /* \"#utility.yul\":4506:4572   */\n      tag_141\n        /* \"#utility.yul\":4522:4571   */\n      tag_142\n        /* \"#utility.yul\":4564:4570   */\n      dup5\n        /* \"#utility.yul\":4522:4571   */\n      tag_68\n      jump\t// in\n    tag_142:\n        /* \"#utility.yul\":4506:4572   */\n      tag_67\n      jump\t// in\n    tag_141:\n        /* \"#utility.yul\":4497:4572   */\n      swap1\n      pop\n        /* \"#utility.yul\":4595:4601   */\n      dup3\n        /* \"#utility.yul\":4588:4593   */\n      dup2\n        /* \"#utility.yul\":4581:4602   */\n      mstore\n        /* \"#utility.yul\":4633:4637   */\n      0x20\n        /* \"#utility.yul\":4626:4631   */\n      dup2\n        /* \"#utility.yul\":4622:4638   */\n      add\n        /* \"#utility.yul\":4671:4674   */\n      dup5\n        /* \"#utility.yul\":4662:4668   */\n      dup5\n        /* \"#utility.yul\":4657:4660   */\n      dup5\n        /* \"#utility.yul\":4653:4669   */\n      add\n        /* \"#utility.yul\":4650:4675   */\n      gt\n        /* \"#utility.yul\":4647:4759   */\n      iszero\n      tag_143\n      jumpi\n        /* \"#utility.yul\":4678:4757   */\n      tag_144\n      tag_64\n      jump\t// in\n    tag_144:\n        /* \"#utility.yul\":4647:4759   */\n    tag_143:\n        /* \"#utility.yul\":4768:4822   */\n      tag_145\n        /* \"#utility.yul\":4815:4821   */\n      dup5\n        /* \"#utility.yul\":4810:4813   */\n      dup3\n        /* \"#utility.yul\":4805:4808   */\n      dup6\n        /* \"#utility.yul\":4768:4822   */\n      tag_69\n      jump\t// in\n    tag_145:\n        /* \"#utility.yul\":4487:4828   */\n      pop\n        /* \"#utility.yul\":4403:4828   */\n      swap4\n      swap3\n      pop\n      pop\n      pop\n      jump\t// out\n        /* \"#utility.yul\":4848:5188   */\n    tag_71:\n        /* \"#utility.yul\":4904:4909   */\n      0x00\n        /* \"#utility.yul\":4953:4956   */\n      dup3\n        /* \"#utility.yul\":4946:4950   */\n      0x1f\n        /* \"#utility.yul\":4938:4944   */\n      dup4\n        /* \"#utility.yul\":4934:4951   */\n      add\n        /* \"#utility.yul\":4930:4957   */\n      slt\n        /* \"#utility.yul\":4920:5042   */\n      tag_147\n      jumpi\n        /* \"#utility.yul\":4961:5040   */\n      tag_148\n      tag_63\n      jump\t// in\n    tag_148:\n        /* \"#utility.yul\":4920:5042   */\n    tag_147:\n        /* \"#utility.yul\":5078:5084   */\n      dup2\n        /* \"#utility.yul\":5065:5085   */\n      calldataload\n        /* \"#utility.yul\":5103:5182   */\n      tag_149\n        /* \"#utility.yul\":5178:5181   */\n      dup5\n        /* \"#utility.yul\":5170:5176   */\n      dup3\n        /* \"#utility.yul\":5163:5167   */\n      0x20\n        /* \"#utility.yul\":5155:5161   */\n      dup7\n        /* \"#utility.yul\":5151:5168   */\n      add\n        /* \"#utility.yul\":5103:5182   */\n      tag_70\n      jump\t// in\n    tag_149:\n        /* \"#utility.yul\":5094:5182   */\n      swap2\n      pop\n        /* \"#utility.yul\":4910:5188   */\n      pop\n        /* \"#utility.yul\":4848:5188   */\n      swap3\n      swap2\n      pop\n      pop\n      jump\t// out\n        /* \"#utility.yul\":5194:5703   */\n    tag_22:\n        /* \"#utility.yul\":5263:5269   */\n      0x00\n        /* \"#utility.yul\":5312:5314   */\n      0x20\n        /* \"#utility.yul\":5300:5309   */\n      dup3\n        /* \"#utility.yul\":5291:5298   */\n      dup5\n        /* \"#utility.yul\":5287:5310   */\n      sub\n        /* \"#utility.yul\":5283:5315   */\n      slt\n        /* \"#utility.yul\":5280:5399   */\n      iszero\n      tag_151\n      jumpi\n        /* \"#utility.yul\":5318:5397   */\n      tag_152\n      tag_61\n      jump\t// in\n    tag_152:\n        /* \"#utility.yul\":5280:5399   */\n    tag_151:\n        /* \"#utility.yul\":5466:5467   */\n      0x00\n        /* \"#utility.yul\":5455:5464   */\n      dup3\n        /* \"#utility.yul\":5451:5468   */\n      add\n        /* \"#utility.yul\":5438:5469   */\n      calldataload\n        /* \"#utility.yul\":5496:5514   */\n      0xffffffffffffffff\n        /* \"#utility.yul\":5488:5494   */\n      dup2\n        /* \"#utility.yul\":5485:5515   */\n      gt\n        /* \"#utility.yul\":5482:5599   */\n      iszero\n      tag_153\n      jumpi\n        /* \"#utility.yul\":5518:5597   */\n      tag_154\n      tag_62\n      jump\t// in\n    tag_154:\n        /* \"#utility.yul\":5482:5599   */\n    tag_153:\n        /* \"#utility.yul\":5623:5686   */\n      tag_155\n        /* \"#utility.yul\":5678:5685   */\n      dup5\n        /* \"#utility.yul\":5669:5675   */\n      dup3\n        /* \"#utility.yul\":5658:5667   */\n      dup6\n        /* \"#utility.yul\":5654:5676   */\n      add\n        /* \"#utility.yul\":5623:5686   */\n      tag_71\n      jump\t// in\n    tag_155:\n        /* \"#utility.yul\":5613:5686   */\n      swap2\n      pop\n        /* \"#utility.yul\":5409:5696   */\n      pop\n        /* \"#utility.yul\":5194:5703   */\n      swap3\n      swap2\n      pop\n      pop\n      jump\t// out\n        /* \"#utility.yul\":5709:5799   */\n    tag_72:\n        /* \"#utility.yul\":5743:5750   */\n      0x00\n        /* \"#utility.yul\":5786:5791   */\n      dup2\n        /* \"#utility.yul\":5779:5792   */\n      iszero\n        /* \"#utility.yul\":5772:5793   */\n      iszero\n        /* \"#utility.yul\":5761:5793   */\n      swap1\n      pop\n        /* \"#utility.yul\":5709:5799   */\n      swap2\n      swap1\n      pop\n      jump\t// out\n        /* \"#utility.yul\":5805:5914   */\n    tag_73:\n        /* \"#utility.yul\":5886:5907   */\n      tag_158\n        /* \"#utility.yul\":5901:5906   */\n      dup2\n        /* \"#utility.yul\":5886:5907   */\n      tag_72\n      jump\t// in\n    tag_158:\n        /* \"#utility.yul\":5881:5884   */\n      dup3\n        /* \"#utility.yul\":5874:5908   */\n      mstore\n        /* \"#utility.yul\":5805:5914   */\n      pop\n      pop\n      jump\t// out\n        /* \"#utility.yul\":5920:6130   */\n    tag_25:\n        /* \"#utility.yul\":6007:6011   */\n      0x00\n        /* \"#utility.yul\":6045:6047   */\n      0x20\n        /* \"#utility.yul\":6034:6043   */\n      dup3\n        /* \"#utility.yul\":6030:6048   */\n      add\n        /* \"#utility.yul\":6022:6048   */\n      swap1\n      pop\n        /* \"#utility.yul\":6058:6123   */\n      tag_160\n        /* \"#utility.yul\":6120:6121   */\n      0x00\n        /* \"#utility.yul\":6109:6118   */\n      dup4\n        /* \"#utility.yul\":6105:6122   */\n      add\n        /* \"#utility.yul\":6096:6102   */\n      dup5\n        /* \"#utility.yul\":6058:6123   */\n      tag_73\n      jump\t// in\n    tag_160:\n        /* \"#utility.yul\":5920:6130   */\n      swap3\n      swap2\n      pop\n      pop\n      jump\t// out\n        /* \"#utility.yul\":6136:6316   */\n    tag_74:\n        /* \"#utility.yul\":6184:6261   */\n      0x4e487b7100000000000000000000000000000000000000000000000000000000\n        /* \"#utility.yul\":6181:6182   */\n      0x00\n        /* \"#utility.yul\":6174:6262   */\n      mstore\n        /* \"#utility.yul\":6281:6285   */\n      0x22\n        /* \"#utility.yul\":6278:6279   */\n      0x04\n        /* \"#utility.yul\":6271:6286   */\n      mstore\n        /* \"#utility.yul\":6305:6309   */\n      0x24\n        /* \"#utility.yul\":6302:6303   */\n      0x00\n        /* \"#utility.yul\":6295:6310   */\n      revert\n        /* \"#utility.yul\":6322:6642   */\n    tag_31:\n        /* \"#utility.yul\":6366:6372   */\n      0x00\n        /* \"#utility.yul\":6403:6404   */\n      0x02\n        /* \"#utility.yul\":6397:6401   */\n      dup3\n        /* \"#utility.yul\":6393:6405   */\n      div\n        /* \"#utility.yul\":6383:6405   */\n      swap1\n      pop\n        /* \"#utility.yul\":6450:6451   */\n      0x01\n        /* \"#utility.yul\":6444:6448   */\n      dup3\n        /* \"#utility.yul\":6440:6452   */\n      and\n        /* \"#utility.yul\":6471:6489   */\n      dup1\n        /* \"#utility.yul\":6461:6542   */\n      tag_163\n      jumpi\n        /* \"#utility.yul\":6527:6531   */\n      0x7f\n        /* \"#utility.yul\":6519:6525   */\n      dup3\n        /* \"#utility.yul\":6515:6532   */\n      and\n        /* \"#utility.yul\":6505:6532   */\n      swap2\n      pop\n        /* \"#utility.yul\":6461:6542   */\n    tag_163:\n        /* \"#utility.yul\":6589:6591   */\n      0x20\n        /* \"#utility.yul\":6581:6587   */\n      dup3\n        /* \"#utility.yul\":6578:6592   */\n      lt\n        /* \"#utility.yul\":6558:6576   */\n      dup2\n        /* \"#utility.yul\":6555:6593   */\n      sub\n        /* \"#utility.yul\":6552:6636   */\n      tag_164\n      jumpi\n        /* \"#utility.yul\":6608:6626   */\n      tag_165\n      tag_74\n      jump\t// in\n    tag_165:\n        /* \"#utility.yul\":6552:6636   */\n    tag_164:\n        /* \"#utility.yul\":6373:6642   */\n      pop\n        /* \"#utility.yul\":6322:6642   */\n      swap2\n      swap1\n      pop\n      jump\t// out\n        /* \"#utility.yul\":6648:6796   */\n    tag_75:\n        /* \"#utility.yul\":6750:6761   */\n      0x00\n        /* \"#utility.yul\":6787:6790   */\n      dup2\n        /* \"#utility.yul\":6772:6790   */\n      swap1\n      pop\n        /* \"#utility.yul\":6648:6796   */\n      swap3\n      swap2\n      pop\n      pop\n      jump\t// out\n        /* \"#utility.yul\":6802:7192   */\n    tag_76:\n        /* \"#utility.yul\":6908:6911   */\n      0x00\n        /* \"#utility.yul\":6936:6975   */\n      tag_168\n        /* \"#utility.yul\":6969:6974   */\n      dup3\n        /* \"#utility.yul\":6936:6975   */\n      tag_52\n      jump\t// in\n    tag_168:\n        /* \"#utility.yul\":6991:7080   */\n      tag_169\n        /* \"#utility.yul\":7073:7079   */\n      dup2\n        /* \"#utility.yul\":7068:7071   */\n      dup6\n        /* \"#utility.yul\":6991:7080   */\n      tag_75\n      jump\t// in\n    tag_169:\n        /* \"#utility.yul\":6984:7080   */\n      swap4\n      pop\n        /* \"#utility.yul\":7089:7154   */\n      tag_170\n        /* \"#utility.yul\":7147:7153   */\n      dup2\n        /* \"#utility.yul\":7142:7145   */\n      dup6\n        /* \"#utility.yul\":7135:7139   */\n      0x20\n        /* \"#utility.yul\":7128:7133   */\n      dup7\n        /* \"#utility.yul\":7124:7140   */\n      add\n        /* \"#utility.yul\":7089:7154   */\n      tag_54\n      jump\t// in\n    tag_170:\n        /* \"#utility.yul\":7179:7185   */\n      dup1\n        /* \"#utility.yul\":7174:7177   */\n      dup5\n        /* \"#utility.yul\":7170:7186   */\n      add\n        /* \"#utility.yul\":7163:7186   */\n      swap2\n      pop\n        /* \"#utility.yul\":6912:7192   */\n      pop\n        /* \"#utility.yul\":6802:7192   */\n      swap3\n      swap2\n      pop\n      pop\n      jump\t// out\n        /* \"#utility.yul\":7198:7473   */\n    tag_44:\n        /* \"#utility.yul\":7330:7333   */\n      0x00\n        /* \"#utility.yul\":7352:7447   */\n      tag_172\n        /* \"#utility.yul\":7443:7446   */\n      dup3\n        /* \"#utility.yul\":7434:7440   */\n      dup5\n        /* \"#utility.yul\":7352:7447   */\n      tag_76\n      jump\t// in\n    tag_172:\n        /* \"#utility.yul\":7345:7447   */\n      swap2\n      pop\n        /* \"#utility.yul\":7464:7467   */\n      dup2\n        /* \"#utility.yul\":7457:7467   */\n      swap1\n      pop\n        /* \"#utility.yul\":7198:7473   */\n      swap3\n      swap2\n      pop\n      pop\n      jump\t// out\n        /* \"#utility.yul\":7479:7620   */\n    tag_77:\n        /* \"#utility.yul\":7528:7532   */\n      0x00\n        /* \"#utility.yul\":7551:7554   */\n      dup2\n        /* \"#utility.yul\":7543:7554   */\n      swap1\n      pop\n        /* \"#utility.yul\":7574:7577   */\n      dup2\n        /* \"#utility.yul\":7571:7572   */\n      0x00\n        /* \"#utility.yul\":7564:7578   */\n      mstore\n        /* \"#utility.yul\":7608:7612   */\n      0x20\n        /* \"#utility.yul\":7605:7606   */\n      0x00\n        /* \"#utility.yul\":7595:7613   */\n      keccak256\n        /* \"#utility.yul\":7587:7613   */\n      swap1\n      pop\n        /* \"#utility.yul\":7479:7620   */\n      swap2\n      swap1\n      pop\n      jump\t// out\n        /* \"#utility.yul\":7650:8524   */\n    tag_78:\n        /* \"#utility.yul\":7753:7756   */\n      0x00\n        /* \"#utility.yul\":7790:7795   */\n      dup2\n        /* \"#utility.yul\":7784:7796   */\n      sload\n        /* \"#utility.yul\":7819:7855   */\n      tag_175\n        /* \"#utility.yul\":7845:7854   */\n      dup2\n        /* \"#utility.yul\":7819:7855   */\n      tag_31\n      jump\t// in\n    tag_175:\n        /* \"#utility.yul\":7871:7960   */\n      tag_176\n        /* \"#utility.yul\":7953:7959   */\n      dup2\n        /* \"#utility.yul\":7948:7951   */\n      dup7\n        /* \"#utility.yul\":7871:7960   */\n      tag_75\n      jump\t// in\n    tag_176:\n        /* \"#utility.yul\":7864:7960   */\n      swap5\n      pop\n        /* \"#utility.yul\":7991:7992   */\n      0x01\n        /* \"#utility.yul\":7980:7989   */\n      dup3\n        /* \"#utility.yul\":7976:7993   */\n      and\n        /* \"#utility.yul\":8007:8008   */\n      0x00\n        /* \"#utility.yul\":8002:8168   */\n      dup2\n      eq\n      tag_178\n      jumpi\n        /* \"#utility.yul\":8182:8183   */\n      0x01\n        /* \"#utility.yul\":8177:8518   */\n      dup2\n      eq\n      tag_179\n      jumpi\n        /* \"#utility.yul\":7969:8518   */\n      jump(tag_177)\n        /* \"#utility.yul\":8002:8168   */\n    tag_178:\n        /* \"#utility.yul\":8086:8090   */\n      0xff\n        /* \"#utility.yul\":8082:8091   */\n      not\n        /* \"#utility.yul\":8071:8080   */\n      dup4\n        /* \"#utility.yul\":8067:8092   */\n      and\n        /* \"#utility.yul\":8062:8065   */\n      dup7\n        /* \"#utility.yul\":8055:8093   */\n      mstore\n        /* \"#utility.yul\":8148:8154   */\n      dup2\n        /* \"#utility.yul\":8141:8155   */\n      iszero\n        /* \"#utility.yul\":8134:8156   */\n      iszero\n        /* \"#utility.yul\":8126:8132   */\n      dup3\n        /* \"#utility.yul\":8122:8157   */\n      mul\n        /* \"#utility.yul\":8117:8120   */\n      dup7\n        /* \"#utility.yul\":8113:8158   */\n      add\n        /* \"#utility.yul\":8106:8158   */\n      swap4\n      pop\n        /* \"#utility.yul\":8002:8168   */\n      jump(tag_177)\n        /* \"#utility.yul\":8177:8518   */\n    tag_179:\n        /* \"#utility.yul\":8244:8282   */\n      tag_180\n        /* \"#utility.yul\":8276:8281   */\n      dup6\n        /* \"#utility.yul\":8244:8282   */\n      tag_77\n      jump\t// in\n    tag_180:\n        /* \"#utility.yul\":8304:8305   */\n      0x00\n        /* \"#utility.yul\":8318:8472   */\n    tag_181:\n        /* \"#utility.yul\":8332:8338   */\n      dup4\n        /* \"#utility.yul\":8329:8330   */\n      dup2\n        /* \"#utility.yul\":8326:8339   */\n      lt\n        /* \"#utility.yul\":8318:8472   */\n      iszero\n      tag_183\n      jumpi\n        /* \"#utility.yul\":8406:8413   */\n      dup2\n        /* \"#utility.yul\":8400:8414   */\n      sload\n        /* \"#utility.yul\":8396:8397   */\n      dup2\n        /* \"#utility.yul\":8391:8394   */\n      dup10\n        /* \"#utility.yul\":8387:8398   */\n      add\n        /* \"#utility.yul\":8380:8415   */\n      mstore\n        /* \"#utility.yul\":8456:8457   */\n      0x01\n        /* \"#utility.yul\":8447:8454   */\n      dup3\n        /* \"#utility.yul\":8443:8458   */\n      add\n        /* \"#utility.yul\":8432:8458   */\n      swap2\n      pop\n        /* \"#utility.yul\":8354:8358   */\n      0x20\n        /* \"#utility.yul\":8351:8352   */\n      dup2\n        /* \"#utility.yul\":8347:8359   */\n      add\n        /* \"#utility.yul\":8342:8359   */\n      swap1\n      pop\n        /* \"#utility.yul\":8318:8472   */\n      jump(tag_181)\n    tag_183:\n        /* \"#utility.yul\":8501:8507   */\n      dup4\n        /* \"#utility.yul\":8496:8499   */\n      dup9\n        /* \"#utility.yul\":8492:8508   */\n      add\n        /* \"#utility.yul\":8485:8508   */\n      swap6\n      pop\n        /* \"#utility.yul\":8184:8518   */\n      pop\n      pop\n        /* \"#utility.yul\":7969:8518   */\n    tag_177:\n      pop\n        /* \"#utility.yul\":7757:8524   */\n      pop\n      pop\n        /* \"#utility.yul\":7650:8524   */\n      swap3\n      swap2\n      pop\n      pop\n      jump\t// out\n        /* \"#utility.yul\":8530:8799   */\n    tag_46:\n        /* \"#utility.yul\":8659:8662   */\n      0x00\n        /* \"#utility.yul\":8681:8773   */\n      tag_185\n        /* \"#utility.yul\":8769:8772   */\n      dup3\n        /* \"#utility.yul\":8760:8766   */\n      dup5\n        /* \"#utility.yul\":8681:8773   */\n      tag_78\n      jump\t// in\n    tag_185:\n        /* \"#utility.yul\":8674:8773   */\n      swap2\n      pop\n        /* \"#utility.yul\":8790:8793   */\n      dup2\n        /* \"#utility.yul\":8783:8793   */\n      swap1\n      pop\n        /* \"#utility.yul\":8530:8799   */\n      swap3\n      swap2\n      pop\n      pop\n      jump\t// out\n        /* \"#utility.yul\":8805:8898   */\n    tag_79:\n        /* \"#utility.yul\":8842:8848   */\n      0x00\n        /* \"#utility.yul\":8889:8891   */\n      0x20\n        /* \"#utility.yul\":8884:8886   */\n      0x1f\n        /* \"#utility.yul\":8877:8882   */\n      dup4\n        /* \"#utility.yul\":8873:8887   */\n      add\n        /* \"#utility.yul\":8869:8892   */\n      div\n        /* \"#utility.yul\":8859:8892   */\n      swap1\n      pop\n        /* \"#utility.yul\":8805:8898   */\n      swap2\n      swap1\n      pop\n      jump\t// out\n        /* \"#utility.yul\":8904:9011   */\n    tag_80:\n        /* \"#utility.yul\":8948:8956   */\n      0x00\n        /* \"#utility.yul\":8998:9003   */\n      dup3\n        /* \"#utility.yul\":8992:8996   */\n      dup3\n        /* \"#utility.yul\":8988:9004   */\n      shl\n        /* \"#utility.yul\":8967:9004   */\n      swap1\n      pop\n        /* \"#utility.yul\":8904:9011   */\n      swap3\n      swap2\n      pop\n      pop\n      jump\t// out\n        /* \"#utility.yul\":9017:9410   */\n    tag_81:\n        /* \"#utility.yul\":9086:9092   */\n      0x00\n        /* \"#utility.yul\":9136:9137   */\n      0x08\n        /* \"#utility.yul\":9124:9134   */\n      dup4\n        /* \"#utility.yul\":9120:9138   */\n      mul\n        /* \"#utility.yul\":9159:9256   */\n      tag_189\n        /* \"#utility.yul\":9189:9255   */\n      0xffffffffffffffffffffffffffffffffffffffffffffffffffffffffffffffff\n        /* \"#utility.yul\":9178:9187   */\n      dup3\n        /* \"#utility.yul\":9159:9256   */\n      tag_80\n      jump\t// in\n    tag_189:\n        /* \"#utility.yul\":9277:9316   */\n      tag_190\n        /* \"#utility.yul\":9307:9315   */\n      dup7\n        /* \"#utility.yul\":9296:9305   */\n      dup4\n        /* \"#utility.yul\":9277:9316   */\n      tag_80\n      jump\t// in\n    tag_190:\n        /* \"#utility.yul\":9265:9316   */\n      swap6\n      pop\n        /* \"#utility.yul\":9349:9353   */\n      dup1\n        /* \"#utility.yul\":9345:9354   */\n      not\n        /* \"#utility.yul\":9338:9343   */\n      dup5\n        /* \"#utility.yul\":9334:9355   */\n      and\n        /* \"#utility.yul\":9325:9355   */\n      swap4\n      pop\n        /* \"#utility.yul\":9398:9402   */\n      dup1\n        /* \"#utility.yul\":9388:9396   */\n      dup7\n        /* \"#utility.yul\":9384:9403   */\n      and\n        /* \"#utility.yul\":9377:9382   */\n      dup5\n        /* \"#utility.yul\":9374:9404   */\n      or\n        /* \"#utility.yul\":9364:9404   */\n      swap3\n      pop\n        /* \"#utility.yul\":9093:9410   */\n      pop\n      pop\n        /* \"#utility.yul\":9017:9410   */\n      swap4\n      swap3\n      pop\n      pop\n      pop\n      jump\t// out\n        /* \"#utility.yul\":9416:9476   */\n    tag_82:\n        /* \"#utility.yul\":9444:9447   */\n      0x00\n        /* \"#utility.yul\":9465:9470   */\n      dup2\n        /* \"#utility.yul\":9458:9470   */\n      swap1\n      pop\n        /* \"#utility.yul\":9416:9476   */\n      swap2\n      swap1\n      pop\n      jump\t// out\n        /* \"#utility.yul\":9482:9624   */\n    tag_83:\n        /* \"#utility.yul\":9532:9541   */\n      0x00\n        /* \"#utility.yul\":9565:9618   */\n      tag_193\n        /* \"#utility.yul\":9583:9617   */\n      tag_194\n        /* \"#utility.yul\":9592:9616   */\n      tag_195\n        /* \"#utility.yul\":9610:9615   */\n      dup5\n        /* \"#utility.yul\":9592:9616   */\n      tag_50\n      jump\t// in\n    tag_195:\n        /* \"#utility.yul\":9583:9617   */\n      tag_82\n      jump\t// in\n    tag_194:\n        /* \"#utility.yul\":9565:9618   */\n      tag_50\n      jump\t// in\n    tag_193:\n        /* \"#utility.yul\":9552:9618   */\n      swap1\n      pop\n        /* \"#utility.yul\":9482:9624   */\n      swap2\n      swap1\n      pop\n      jump\t// out\n        /* \"#utility.yul\":9630:9705   */\n    tag_84:\n        /* \"#utility.yul\":9673:9676   */\n      0x00\n        /* \"#utility.yul\":9694:9699   */\n      dup2\n        /* \"#utility.yul\":9687:9699   */\n      swap1\n      pop\n        /* \"#utility.yul\":9630:9705   */\n      swap2\n      swap1\n      pop\n      jump\t// out\n        /* \"#utility.yul\":9711:9980   */\n    tag_85:\n        /* \"#utility.yul\":9821:9860   */\n      tag_198\n        /* \"#utility.yul\":9852:9859   */\n      dup4\n        /* \"#utility.yul\":9821:9860   */\n      tag_83\n      jump\t// in\n    tag_198:\n        /* \"#utility.yul\":9882:9973   */\n      tag_199\n        /* \"#utility.yul\":9931:9972   */\n      tag_200\n        /* \"#utility.yul\":9955:9971   */\n      dup3\n        /* \"#utility.yul\":9931:9972   */\n      tag_84\n      jump\t// in\n    tag_200:\n        /* \"#utility.yul\":9923:9929   */\n      dup5\n        /* \"#utility.yul\":9916:9920   */\n      dup5\n        /* \"#utility.yul\":9910:9921   */\n      sload\n        /* \"#utility.yul\":9882:9973   */\n      tag_81\n      jump\t// in\n    tag_199:\n        /* \"#utility.yul\":9876:9880   */\n      dup3\n        /* \"#utility.yul\":9869:9974   */\n      sstore\n        /* \"#utility.yul\":9787:9980   */\n      pop\n        /* \"#utility.yul\":9711:9980   */\n      pop\n      pop\n      pop\n      jump\t// out\n        /* \"#utility.yul\":9986:10059   */\n    tag_86:\n        /* \"#utility.yul\":10031:10034   */\n      0x00\n        /* \"#utility.yul\":9986:10059   */\n      swap1\n      jump\t// out\n        /* \"#utility.yul\":10065:10254   */\n    tag_87:\n        /* \"#utility.yul\":10142:10174   */\n      tag_203\n      tag_86\n      jump\t// in\n    tag_203:\n        /* \"#utility.yul\":10183:10248   */\n      tag_204\n        /* \"#utility.yul\":10241:10247   */\n      dup2\n        /* \"#utility.yul\":10233:10239   */\n      dup5\n        /* \"#utility.yul\":10227:10231   */\n      dup5\n        /* \"#utility.yul\":10183:10248   */\n      tag_85\n      jump\t// in\n    tag_204:\n        /* \"#utility.yul\":10118:10254   */\n      pop\n        /* \"#utility.yul\":10065:10254   */\n      pop\n      pop\n      jump\t// out\n        /* \"#utility.yul\":10260:10446   */\n    tag_88:\n        /* \"#utility.yul\":10320:10440   */\n    tag_206:\n        /* \"#utility.yul\":10337:10340   */\n      dup2\n        /* \"#utility.yul\":10330:10335   */\n      dup2\n        /* \"#utility.yul\":10327:10341   */\n      lt\n        /* \"#utility.yul\":10320:10440   */\n      iszero\n      tag_208\n      jumpi\n        /* \"#utility.yul\":10391:10430   */\n      tag_209\n        /* \"#utility.yul\":10428:10429   */\n      0x00\n        /* \"#utility.yul\":10421:10426   */\n      dup3\n        /* \"#utility.yul\":10391:10430   */\n      tag_87\n      jump\t// in\n    tag_209:\n        /* \"#utility.yul\":10364:10365   */\n      0x01\n        /* \"#utility.yul\":10357:10362   */\n      dup2\n        /* \"#utility.yul\":10353:10366   */\n      add\n        /* \"#utility.yul\":10344:10366   */\n      swap1\n      pop\n        /* \"#utility.yul\":10320:10440   */\n      jump(tag_206)\n    tag_208:\n        /* \"#utility.yul\":10260:10446   */\n      pop\n      pop\n      jump\t// out\n        /* \"#utility.yul\":10452:10995   */\n    tag_89:\n        /* \"#utility.yul\":10553:10555   */\n      0x1f\n        /* \"#utility.yul\":10548:10551   */\n      dup3\n        /* \"#utility.yul\":10545:10556   */\n      gt\n        /* \"#utility.yul\":10542:10988   */\n      iszero\n      tag_211\n      jumpi\n        /* \"#utility.yul\":10587:10625   */\n      tag_212\n        /* \"#utility.yul\":10619:10624   */\n      dup2\n        /* \"#utility.yul\":10587:10625   */\n      tag_77\n      jump\t// in\n    tag_212:\n        /* \"#utility.yul\":10671:10700   */\n      tag_213\n        /* \"#utility.yul\":10689:10699   */\n      dup5\n        /* \"#utility.yul\":10671:10700   */\n      tag_79\n      jump\t// in\n    tag_213:\n        /* \"#utility.yul\":10661:10669   */\n      dup2\n        /* \"#utility.yul\":10657:10701   */\n      add\n        /* \"#utility.yul\":10854:10856   */\n      0x20\n        /* \"#utility.yul\":10842:10852   */\n      dup6\n        /* \"#utility.yul\":10839:10857   */\n      lt\n        /* \"#utility.yul\":10836:10885   */\n      iszero\n      tag_214\n      jumpi\n        /* \"#utility.yul\":10875:10883   */\n      dup2\n        /* \"#utility.yul\":10860:10883   */\n      swap1\n      pop\n        /* \"#utility.yul\":10836:10885   */\n    tag_214:\n        /* \"#utility.yul\":10898:10978   */\n      tag_215\n        /* \"#utility.yul\":10954:10976   */\n      tag_216\n        /* \"#utility.yul\":10972:10975   */\n      dup6\n        /* \"#utility.yul\":10954:10976   */\n      tag_79\n      jump\t// in\n    tag_216:\n        /* \"#utility.yul\":10944:10952   */\n      dup4\n        /* \"#utility.yul\":10940:10977   */\n      add\n        /* \"#utility.yul\":10927:10938   */\n      dup3\n        /* \"#utility.yul\":10898:10978   */\n      tag_88\n      jump\t// in\n    tag_215:\n        /* \"#utility.yul\":10557:10988   */\n      pop\n      pop\n        /* \"#utility.yul\":10542:10988   */\n    tag_211:\n        /* \"#utility.yul\":10452:10995   */\n      pop\n      pop\n      pop\n      jump\t// out\n        /* \"#utility.yul\":11001:11118   */\n    tag_90:\n        /* \"#utility.yul\":11055:11063   */\n      0x00\n        /* \"#utility.yul\":11105:11110   */\n      dup3\n        /* \"#utility.yul\":11099:11103   */\n      dup3\n        /* \"#utility.yul\":11095:11111   */\n      shr\n        /* \"#utility.yul\":11074:11111   */\n      swap1\n      pop\n        /* \"#utility.yul\":11001:11118   */\n      swap3\n      swap2\n      pop\n      pop\n      jump\t// out\n        /* \"#utility.yul\":11124:11293   */\n    tag_91:\n        /* \"#utility.yul\":11168:11174   */\n      0x00\n        /* \"#utility.yul\":11201:11252   */\n      tag_219\n        /* \"#utility.yul\":11249:11250   */\n      0x00\n        /* \"#utility.yul\":11245:11251   */\n      not\n        /* \"#utility.yul\":11237:11242   */\n      dup5\n        /* \"#utility.yul\":11234:11235   */\n      0x08\n        /* \"#utility.yul\":11230:11243   */\n      mul\n        /* \"#utility.yul\":11201:11252   */\n      tag_90\n      jump\t// in\n    tag_219:\n        /* \"#utility.yul\":11197:11253   */\n      not\n        /* \"#utility.yul\":11282:11286   */\n      dup1\n        /* \"#utility.yul\":11276:11280   */\n      dup4\n        /* \"#utility.yul\":11272:11287   */\n      and\n        /* \"#utility.yul\":11262:11287   */\n      swap2\n      pop\n        /* \"#utility.yul\":11175:11293   */\n      pop\n        /* \"#utility.yul\":11124:11293   */\n      swap3\n      swap2\n      pop\n      pop\n      jump\t// out\n        /* \"#utility.yul\":11298:11593   */\n    tag_92:\n        /* \"#utility.yul\":11374:11378   */\n      0x00\n        /* \"#utility.yul\":11520:11549   */\n      tag_221\n        /* \"#utility.yul\":11545:11548   */\n      dup4\n        /* \"#utility.yul\":11539:11543   */\n      dup4\n        /* \"#utility.yul\":11520:11549   */\n      tag_91\n      jump\t// in\n    tag_221:\n        /* \"#utility.yul\":11512:11549   */\n      swap2\n      pop\n        /* \"#utility.yul\":11582:11585   */\n      dup3\n        /* \"#utility.yul\":11579:11580   */\n      0x02\n        /* \"#utility.yul\":11575:11586   */\n      mul\n        /* \"#utility.yul\":11569:11573   */\n      dup3\n        /* \"#utility.yul\":11566:11587   */\n      or\n        /* \"#utility.yul\":11558:11587   */\n      swap1\n      pop\n        /* \"#utility.yul\":11298:11593   */\n      swap3\n      swap2\n      pop\n      pop\n      jump\t// out\n        /* \"#utility.yul\":11598:12993   */\n    tag_49:\n        /* \"#utility.yul\":11715:11752   */\n      tag_223\n        /* \"#utility.yul\":11748:11751   */\n      dup3\n        /* \"#utility.yul\":11715:11752   */\n      tag_52\n      jump\t// in\n    tag_223:\n        /* \"#utility.yul\":11817:11835   */\n      0xffffffffffffffff\n        /* \"#utility.yul\":11809:11815   */\n      dup2\n        /* \"#utility.yul\":11806:11836   */\n      gt\n        /* \"#utility.yul\":11803:11859   */\n      iszero\n      tag_224\n      jumpi\n        /* \"#utility.yul\":11839:11857   */\n      tag_225\n      tag_65\n      jump\t// in\n    tag_225:\n        /* \"#utility.yul\":11803:11859   */\n    tag_224:\n        /* \"#utility.yul\":11883:11921   */\n      tag_226\n        /* \"#utility.yul\":11915:11919   */\n      dup3\n        /* \"#utility.yul\":11909:11920   */\n      sload\n        /* \"#utility.yul\":11883:11921   */\n      tag_31\n      jump\t// in\n    tag_226:\n        /* \"#utility.yul\":11968:12035   */\n      tag_227\n        /* \"#utility.yul\":12028:12034   */\n      dup3\n        /* \"#utility.yul\":12020:12026   */\n      dup3\n        /* \"#utility.yul\":12014:12018   */\n      dup6\n        /* \"#utility.yul\":11968:12035   */\n      tag_89\n      jump\t// in\n    tag_227:\n        /* \"#utility.yul\":12062:12063   */\n      0x00\n        /* \"#utility.yul\":12086:12090   */\n      0x20\n        /* \"#utility.yul\":12073:12090   */\n      swap1\n      pop\n        /* \"#utility.yul\":12118:12120   */\n      0x1f\n        /* \"#utility.yul\":12110:12116   */\n      dup4\n        /* \"#utility.yul\":12107:12121   */\n      gt\n        /* \"#utility.yul\":12135:12136   */\n      0x01\n        /* \"#utility.yul\":12130:12748   */\n      dup2\n      eq\n      tag_229\n      jumpi\n        /* \"#utility.yul\":12792:12793   */\n      0x00\n        /* \"#utility.yul\":12809:12815   */\n      dup5\n        /* \"#utility.yul\":12806:12883   */\n      iszero\n      tag_230\n      jumpi\n        /* \"#utility.yul\":12858:12867   */\n      dup3\n        /* \"#utility.yul\":12853:12856   */\n      dup8\n        /* \"#utility.yul\":12849:12868   */\n      add\n        /* \"#utility.yul\":12843:12869   */\n      mload\n        /* \"#utility.yul\":12834:12869   */\n      swap1\n      pop\n        /* \"#utility.yul\":12806:12883   */\n    tag_230:\n        /* \"#utility.yul\":12909:12976   */\n      tag_231\n        /* \"#utility.yul\":12969:12975   */\n      dup6\n        /* \"#utility.yul\":12962:12967   */\n      dup3\n        /* \"#utility.yul\":12909:12976   */\n      tag_92\n      jump\t// in\n    tag_231:\n        /* \"#utility.yul\":12903:12907   */\n      dup7\n        /* \"#utility.yul\":12896:12977   */\n      sstore\n        /* \"#utility.yul\":12765:12987   */\n      pop\n        /* \"#utility.yul\":12100:12987   */\n      jump(tag_228)\n        /* \"#utility.yul\":12130:12748   */\n    tag_229:\n        /* \"#utility.yul\":12182:12186   */\n      0x1f\n        /* \"#utility.yul\":12178:12187   */\n      not\n        /* \"#utility.yul\":12170:12176   */\n      dup5\n        /* \"#utility.yul\":12166:12188   */\n      and\n        /* \"#utility.yul\":12216:12253   */\n      tag_232\n        /* \"#utility.yul\":12248:12252   */\n      dup7\n        /* \"#utility.yul\":12216:12253   */\n      tag_77\n      jump\t// in\n    tag_232:\n        /* \"#utility.yul\":12275:12276   */\n      0x00\n        /* \"#utility.yul\":12289:12497   */\n    tag_233:\n        /* \"#utility.yul\":12303:12310   */\n      dup3\n        /* \"#utility.yul\":12300:12301   */\n      dup2\n        /* \"#utility.yul\":12297:12311   */\n      lt\n        /* \"#utility.yul\":12289:12497   */\n      iszero\n      tag_235\n      jumpi\n        /* \"#utility.yul\":12382:12391   */\n      dup5\n        /* \"#utility.yul\":12377:12380   */\n      dup10\n        /* \"#utility.yul\":12373:12392   */\n      add\n        /* \"#utility.yul\":12367:12393   */\n      mload\n        /* \"#utility.yul\":12359:12365   */\n      dup3\n        /* \"#utility.yul\":12352:12394   */\n      sstore\n        /* \"#utility.yul\":12433:12434   */\n      0x01\n        /* \"#utility.yul\":12425:12431   */\n      dup3\n        /* \"#utility.yul\":12421:12435   */\n      add\n        /* \"#utility.yul\":12411:12435   */\n      swap2\n      pop\n        /* \"#utility.yul\":12480:12482   */\n      0x20\n        /* \"#utility.yul\":12469:12478   */\n      dup6\n        /* \"#utility.yul\":12465:12483   */\n      add\n        /* \"#utility.yul\":12452:12483   */\n      swap5\n      pop\n        /* \"#utility.yul\":12326:12330   */\n      0x20\n        /* \"#utility.yul\":12323:12324   */\n      dup2\n        /* \"#utility.yul\":12319:12331   */\n      add\n        /* \"#utility.yul\":12314:12331   */\n      swap1\n      pop\n        /* \"#utility.yul\":12289:12497   */\n      jump(tag_233)\n    tag_235:\n        /* \"#utility.yul\":12525:12531   */\n      dup7\n        /* \"#utility.yul\":12516:12523   */\n      dup4\n        /* \"#utility.yul\":12513:12532   */\n      lt\n        /* \"#utility.yul\":12510:12689   */\n      iszero\n      tag_236\n      jumpi\n        /* \"#utility.yul\":12583:12592   */\n      dup5\n        /* \"#utility.yul\":12578:12581   */\n      dup10\n        /* \"#utility.yul\":12574:12593   */\n      add\n        /* \"#utility.yul\":12568:12594   */\n      mload\n        /* \"#utility.yul\":12626:12674   */\n      tag_237\n        /* \"#utility.yul\":12668:12672   */\n      0x1f\n        /* \"#utility.yul\":12660:12666   */\n      dup10\n        /* \"#utility.yul\":12656:12673   */\n      and\n        /* \"#utility.yul\":12645:12654   */\n      dup3\n        /* \"#utility.yul\":12626:12674   */\n      tag_91\n      jump\t// in\n    tag_237:\n        /* \"#utility.yul\":12618:12624   */\n      dup4\n        /* \"#utility.yul\":12611:12675   */\n      sstore\n        /* \"#utility.yul\":12533:12689   */\n      pop\n        /* \"#utility.yul\":12510:12689   */\n    tag_236:\n        /* \"#utility.yul\":12735:12736   */\n      0x01\n        /* \"#utility.yul\":12731:12732   */\n      0x02\n        /* \"#utility.yul\":12723:12729   */\n      dup9\n        /* \"#utility.yul\":12719:12733   */\n      mul\n        /* \"#utility.yul\":12715:12737   */\n      add\n        /* \"#utility.yul\":12709:12713   */\n      dup9\n        /* \"#utility.yul\":12702:12738   */\n      sstore\n        /* \"#utility.yul\":12137:12748   */\n      pop\n      pop\n      pop\n        /* \"#utility.yul\":12100:12987   */\n    tag_228:\n      pop\n        /* \"#utility.yul\":11690:12993   */\n      pop\n      pop\n      pop\n        /* \"#utility.yul\":11598:12993   */\n      pop\n      pop\n      jump\t// out\n\n    auxdata: 0xa2646970667358221220382985b15fb59659a9cb888e0f7daca9cb4ea032ac145f446f1bd844502178f564736f6c63430008120033\n}\n",
				"bytecode": {
					"linkReferences": {},
					"object": "60806040526040518060400160405280600b81526020017f48656c6c6f2c2048656c6c000000000000000000000000000000000000000000815250600090816200004a919062000320565b506040518060400160405280600b81526020017f48656c6c6f2c2048656c6c000000000000000000000000000000000000000000815250600190816200009191906200046c565b503480156200009f57600080fd5b5062000553565b600081519050919050565b7f4e487b7100000000000000000000000000000000000000000000000000000000600052604160045260246000fd5b7f4e487b7100000000000000000000000000000000000000000000000000000000600052602260045260246000fd5b600060028204905060018216806200012857607f821691505b6020821081036200013e576200013d620000e0565b5b50919050565b60008190508160005260206000209050919050565b60006020601f8301049050919050565b600082821b905092915050565b600060088302620001a87fffffffffffffffffffffffffffffffffffffffffffffffffffffffffffffffff8262000169565b620001b4868362000169565b95508019841693508086168417925050509392505050565b6000819050919050565b6000819050919050565b600062000201620001fb620001f584620001cc565b620001d6565b620001cc565b9050919050565b6000819050919050565b6200021d83620001e0565b620002356200022c8262000208565b84845462000176565b825550505050565b600090565b6200024c6200023d565b6200025981848462000212565b505050565b5b8181101562000281576200027560008262000242565b6001810190506200025f565b5050565b601f821115620002d0576200029a8162000144565b620002a58462000159565b81016020851015620002b5578190505b620002cd620002c48562000159565b8301826200025e565b50505b505050565b600082821c905092915050565b6000620002f560001984600802620002d5565b1980831691505092915050565b6000620003108383620002e2565b9150826002028217905092915050565b6200032b82620000a6565b67ffffffffffffffff811115620003475762000346620000b1565b5b6200035382546200010f565b6200036082828562000285565b600060209050601f83116001811462000398576000841562000383578287015190505b6200038f858262000302565b865550620003ff565b601f198416620003a88662000144565b60005b82811015620003d257848901518255600182019150602085019450602081019050620003ab565b86831015620003f25784890151620003ee601f891682620002e2565b8355505b6001600288020188555050505b505050505050565b60008190508160005260206000209050919050565b601f8211156200046757620004318162000407565b6200043c8462000159565b810160208510156200044c578190505b620004646200045b8562000159565b8301826200025e565b50505b505050565b6200047782620000a6565b67ffffffffffffffff811115620004935762000492620000b1565b5b6200049f82546200010f565b620004ac8282856200041c565b600060209050601f831160018114620004e45760008415620004cf578287015190505b620004db858262000302565b8655506200054b565b601f198416620004f48662000407565b60005b828110156200051e57848901518255600182019150602085019450602081019050620004f7565b868310156200053e57848901516200053a601f891682620002e2565b8355505b6001600288020188555050505b505050505050565b6109c680620005636000396000f3fe608060405234801561001057600080fd5b50600436106100575760003560e01c806307da3eae1461005c578063492bfa181461007a578063712f4602146100985780637c66d013146100b657806382180568146100e6575b600080fd5b610064610102565b60405161007191906102b9565b60405180910390f35b610082610118565b60405161008f9190610364565b60405180910390f35b6100a06101a6565b6040516100ad91906103db565b60405180910390f35b6100d060048036038101906100cb9190610546565b610234565b6040516100dd91906105aa565b60405180910390f35b61010060048036038101906100fb9190610546565b61028d565b005b600060018054610111906105f4565b9050905090565b60008054610125906105f4565b80601f0160208091040260200160405190810160405280929190818152602001828054610151906105f4565b801561019e5780601f106101735761010080835404028352916020019161019e565b820191906000526020600020905b81548152906001019060200180831161018157829003601f168201915b505050505081565b600180546101b3906105f4565b80601f01602080910402602001604051908101604052809291908181526020018280546101df906105f4565b801561022c5780601f106102015761010080835404028352916020019161022c565b820191906000526020600020905b81548152906001019060200180831161020f57829003601f168201915b505050505081565b6000816040516020016102479190610661565b60405160208183030381529060405280519060200120600060405160200161026f9190610710565b60405160208183030381529060405280519060200120149050919050565b806000908161029c91906108be565b5050565b6000819050919050565b6102b3816102a0565b82525050565b60006020820190506102ce60008301846102aa565b92915050565b600081519050919050565b600082825260208201905092915050565b60005b8381101561030e5780820151818401526020810190506102f3565b60008484015250505050565b6000601f19601f8301169050919050565b6000610336826102d4565b61034081856102df565b93506103508185602086016102f0565b6103598161031a565b840191505092915050565b6000602082019050818103600083015261037e818461032b565b905092915050565b600081519050919050565b600082825260208201905092915050565b60006103ad82610386565b6103b78185610391565b93506103c78185602086016102f0565b6103d08161031a565b840191505092915050565b600060208201905081810360008301526103f581846103a2565b905092915050565b6000604051905090565b600080fd5b600080fd5b600080fd5b600080fd5b7f4e487b7100000000000000000000000000000000000000000000000000000000600052604160045260246000fd5b6104538261031a565b810181811067ffffffffffffffff821117156104725761047161041b565b5b80604052505050565b60006104856103fd565b9050610491828261044a565b919050565b600067ffffffffffffffff8211156104b1576104b061041b565b5b6104ba8261031a565b9050602081019050919050565b82818337600083830152505050565b60006104e96104e484610496565b61047b565b90508281526020810184848401111561050557610504610416565b5b6105108482856104c7565b509392505050565b600082601f83011261052d5761052c610411565b5b813561053d8482602086016104d6565b91505092915050565b60006020828403121561055c5761055b610407565b5b600082013567ffffffffffffffff81111561057a5761057961040c565b5b61058684828501610518565b91505092915050565b60008115159050919050565b6105a48161058f565b82525050565b60006020820190506105bf600083018461059b565b92915050565b7f4e487b7100000000000000000000000000000000000000000000000000000000600052602260045260246000fd5b6000600282049050600182168061060c57607f821691505b60208210810361061f5761061e6105c5565b5b50919050565b600081905092915050565b600061063b826102d4565b6106458185610625565b93506106558185602086016102f0565b80840191505092915050565b600061066d8284610630565b915081905092915050565b60008190508160005260206000209050919050565b6000815461069a816105f4565b6106a48186610625565b945060018216600081146106bf57600181146106d457610707565b60ff1983168652811515820286019350610707565b6106dd85610678565b60005b838110156106ff578154818901526001820191506020810190506106e0565b838801955050505b50505092915050565b600061071c828461068d565b915081905092915050565b60006020601f8301049050919050565b600082821b905092915050565b6000600883026107747fffffffffffffffffffffffffffffffffffffffffffffffffffffffffffffffff82610737565b61077e8683610737565b95508019841693508086168417925050509392505050565b6000819050919050565b60006107bb6107b66107b1846102a0565b610796565b6102a0565b9050919050565b6000819050919050565b6107d5836107a0565b6107e96107e1826107c2565b848454610744565b825550505050565b600090565b6107fe6107f1565b6108098184846107cc565b505050565b5b8181101561082d576108226000826107f6565b60018101905061080f565b5050565b601f8211156108725761084381610678565b61084c84610727565b8101602085101561085b578190505b61086f61086785610727565b83018261080e565b50505b505050565b600082821c905092915050565b600061089560001984600802610877565b1980831691505092915050565b60006108ae8383610884565b9150826002028217905092915050565b6108c7826102d4565b67ffffffffffffffff8111156108e0576108df61041b565b5b6108ea82546105f4565b6108f5828285610831565b600060209050601f8311600181146109285760008415610916578287015190505b61092085826108a2565b865550610988565b601f19841661093686610678565b60005b8281101561095e57848901518255600182019150602085019450602081019050610939565b8683101561097b5784890151610977601f891682610884565b8355505b6001600288020188555050505b50505050505056fea2646970667358221220382985b15fb59659a9cb888e0f7daca9cb4ea032ac145f446f1bd844502178f564736f6c63430008120033",
					"opcodes": "PUSH1 0x80 PUSH1 0x40 MSTORE PUSH1 0x40 MLOAD DUP1 PUSH1 0x40 ADD PUSH1 0x40 MSTORE DUP1 PUSH1 0xB DUP2 MSTORE PUSH1 0x20 ADD PUSH32 0x48656C6C6F2C2048656C6C000000000000000000000000000000000000000000 DUP2 MSTORE POP PUSH1 0x0 SWAP1 DUP2 PUSH3 0x4A SWAP2 SWAP1 PUSH3 0x320 JUMP JUMPDEST POP PUSH1 0x40 MLOAD DUP1 PUSH1 0x40 ADD PUSH1 0x40 MSTORE DUP1 PUSH1 0xB DUP2 MSTORE PUSH1 0x20 ADD PUSH32 0x48656C6C6F2C2048656C6C000000000000000000000000000000000000000000 DUP2 MSTORE POP PUSH1 0x1 SWAP1 DUP2 PUSH3 0x91 SWAP2 SWAP1 PUSH3 0x46C JUMP JUMPDEST POP CALLVALUE DUP1 ISZERO PUSH3 0x9F JUMPI PUSH1 0x0 DUP1 REVERT JUMPDEST POP PUSH3 0x553 JUMP JUMPDEST PUSH1 0x0 DUP2 MLOAD SWAP1 POP SWAP2 SWAP1 POP JUMP JUMPDEST PUSH32 0x4E487B7100000000000000000000000000000000000000000000000000000000 PUSH1 0x0 MSTORE PUSH1 0x41 PUSH1 0x4 MSTORE PUSH1 0x24 PUSH1 0x0 REVERT JUMPDEST PUSH32 0x4E487B7100000000000000000000000000000000000000000000000000000000 PUSH1 0x0 MSTORE PUSH1 0x22 PUSH1 0x4 MSTORE PUSH1 0x24 PUSH1 0x0 REVERT JUMPDEST PUSH1 0x0 PUSH1 0x2 DUP3 DIV SWAP1 POP PUSH1 0x1 DUP3 AND DUP1 PUSH3 0x128 JUMPI PUSH1 0x7F DUP3 AND SWAP2 POP JUMPDEST PUSH1 0x20 DUP3 LT DUP2 SUB PUSH3 0x13E JUMPI PUSH3 0x13D PUSH3 0xE0 JUMP JUMPDEST JUMPDEST POP SWAP2 SWAP1 POP JUMP JUMPDEST PUSH1 0x0 DUP2 SWAP1 POP DUP2 PUSH1 0x0 MSTORE PUSH1 0x20 PUSH1 0x0 KECCAK256 SWAP1 POP SWAP2 SWAP1 POP JUMP JUMPDEST PUSH1 0x0 PUSH1 0x20 PUSH1 0x1F DUP4 ADD DIV SWAP1 POP SWAP2 SWAP1 POP JUMP JUMPDEST PUSH1 0x0 DUP3 DUP3 SHL SWAP1 POP SWAP3 SWAP2 POP POP JUMP JUMPDEST PUSH1 0x0 PUSH1 0x8 DUP4 MUL PUSH3 0x1A8 PUSH32 0xFFFFFFFFFFFFFFFFFFFFFFFFFFFFFFFFFFFFFFFFFFFFFFFFFFFFFFFFFFFFFFFF DUP3 PUSH3 0x169 JUMP JUMPDEST PUSH3 0x1B4 DUP7 DUP4 PUSH3 0x169 JUMP JUMPDEST SWAP6 POP DUP1 NOT DUP5 AND SWAP4 POP DUP1 DUP7 AND DUP5 OR SWAP3 POP POP POP SWAP4 SWAP3 POP POP POP JUMP JUMPDEST PUSH1 0x0 DUP2 SWAP1 POP SWAP2 SWAP1 POP JUMP JUMPDEST PUSH1 0x0 DUP2 SWAP1 POP SWAP2 SWAP1 POP JUMP JUMPDEST PUSH1 0x0 PUSH3 0x201 PUSH3 0x1FB PUSH3 0x1F5 DUP5 PUSH3 0x1CC JUMP JUMPDEST PUSH3 0x1D6 JUMP JUMPDEST PUSH3 0x1CC JUMP JUMPDEST SWAP1 POP SWAP2 SWAP1 POP JUMP JUMPDEST PUSH1 0x0 DUP2 SWAP1 POP SWAP2 SWAP1 POP JUMP JUMPDEST PUSH3 0x21D DUP4 PUSH3 0x1E0 JUMP JUMPDEST PUSH3 0x235 PUSH3 0x22C DUP3 PUSH3 0x208 JUMP JUMPDEST DUP5 DUP5 SLOAD PUSH3 0x176 JUMP JUMPDEST DUP3 SSTORE POP POP POP POP JUMP JUMPDEST PUSH1 0x0 SWAP1 JUMP JUMPDEST PUSH3 0x24C PUSH3 0x23D JUMP JUMPDEST PUSH3 0x259 DUP2 DUP5 DUP5 PUSH3 0x212 JUMP JUMPDEST POP POP POP JUMP JUMPDEST JUMPDEST DUP2 DUP2 LT ISZERO PUSH3 0x281 JUMPI PUSH3 0x275 PUSH1 0x0 DUP3 PUSH3 0x242 JUMP JUMPDEST PUSH1 0x1 DUP2 ADD SWAP1 POP PUSH3 0x25F JUMP JUMPDEST POP POP JUMP JUMPDEST PUSH1 0x1F DUP3 GT ISZERO PUSH3 0x2D0 JUMPI PUSH3 0x29A DUP2 PUSH3 0x144 JUMP JUMPDEST PUSH3 0x2A5 DUP5 PUSH3 0x159 JUMP JUMPDEST DUP2 ADD PUSH1 0x20 DUP6 LT ISZERO PUSH3 0x2B5 JUMPI DUP2 SWAP1 POP JUMPDEST PUSH3 0x2CD PUSH3 0x2C4 DUP6 PUSH3 0x159 JUMP JUMPDEST DUP4 ADD DUP3 PUSH3 0x25E JUMP JUMPDEST POP POP JUMPDEST POP POP POP JUMP JUMPDEST PUSH1 0x0 DUP3 DUP3 SHR SWAP1 POP SWAP3 SWAP2 POP POP JUMP JUMPDEST PUSH1 0x0 PUSH3 0x2F5 PUSH1 0x0 NOT DUP5 PUSH1 0x8 MUL PUSH3 0x2D5 JUMP JUMPDEST NOT DUP1 DUP4 AND SWAP2 POP POP SWAP3 SWAP2 POP POP JUMP JUMPDEST PUSH1 0x0 PUSH3 0x310 DUP4 DUP4 PUSH3 0x2E2 JUMP JUMPDEST SWAP2 POP DUP3 PUSH1 0x2 MUL DUP3 OR SWAP1 POP SWAP3 SWAP2 POP POP JUMP JUMPDEST PUSH3 0x32B DUP3 PUSH3 0xA6 JUMP JUMPDEST PUSH8 0xFFFFFFFFFFFFFFFF DUP2 GT ISZERO PUSH3 0x347 JUMPI PUSH3 0x346 PUSH3 0xB1 JUMP JUMPDEST JUMPDEST PUSH3 0x353 DUP3 SLOAD PUSH3 0x10F JUMP JUMPDEST PUSH3 0x360 DUP3 DUP3 DUP6 PUSH3 0x285 JUMP JUMPDEST PUSH1 0x0 PUSH1 0x20 SWAP1 POP PUSH1 0x1F DUP4 GT PUSH1 0x1 DUP2 EQ PUSH3 0x398 JUMPI PUSH1 0x0 DUP5 ISZERO PUSH3 0x383 JUMPI DUP3 DUP8 ADD MLOAD SWAP1 POP JUMPDEST PUSH3 0x38F DUP6 DUP3 PUSH3 0x302 JUMP JUMPDEST DUP7 SSTORE POP PUSH3 0x3FF JUMP JUMPDEST PUSH1 0x1F NOT DUP5 AND PUSH3 0x3A8 DUP7 PUSH3 0x144 JUMP JUMPDEST PUSH1 0x0 JUMPDEST DUP3 DUP2 LT ISZERO PUSH3 0x3D2 JUMPI DUP5 DUP10 ADD MLOAD DUP3 SSTORE PUSH1 0x1 DUP3 ADD SWAP2 POP PUSH1 0x20 DUP6 ADD SWAP5 POP PUSH1 0x20 DUP2 ADD SWAP1 POP PUSH3 0x3AB JUMP JUMPDEST DUP7 DUP4 LT ISZERO PUSH3 0x3F2 JUMPI DUP5 DUP10 ADD MLOAD PUSH3 0x3EE PUSH1 0x1F DUP10 AND DUP3 PUSH3 0x2E2 JUMP JUMPDEST DUP4 SSTORE POP JUMPDEST PUSH1 0x1 PUSH1 0x2 DUP9 MUL ADD DUP9 SSTORE POP POP POP JUMPDEST POP POP POP POP POP POP JUMP JUMPDEST PUSH1 0x0 DUP2 SWAP1 POP DUP2 PUSH1 0x0 MSTORE PUSH1 0x20 PUSH1 0x0 KECCAK256 SWAP1 POP SWAP2 SWAP1 POP JUMP JUMPDEST PUSH1 0x1F DUP3 GT ISZERO PUSH3 0x467 JUMPI PUSH3 0x431 DUP2 PUSH3 0x407 JUMP JUMPDEST PUSH3 0x43C DUP5 PUSH3 0x159 JUMP JUMPDEST DUP2 ADD PUSH1 0x20 DUP6 LT ISZERO PUSH3 0x44C JUMPI DUP2 SWAP1 POP JUMPDEST PUSH3 0x464 PUSH3 0x45B DUP6 PUSH3 0x159 JUMP JUMPDEST DUP4 ADD DUP3 PUSH3 0x25E JUMP JUMPDEST POP POP JUMPDEST POP POP POP JUMP JUMPDEST PUSH3 0x477 DUP3 PUSH3 0xA6 JUMP JUMPDEST PUSH8 0xFFFFFFFFFFFFFFFF DUP2 GT ISZERO PUSH3 0x493 JUMPI PUSH3 0x492 PUSH3 0xB1 JUMP JUMPDEST JUMPDEST PUSH3 0x49F DUP3 SLOAD PUSH3 0x10F JUMP JUMPDEST PUSH3 0x4AC DUP3 DUP3 DUP6 PUSH3 0x41C JUMP JUMPDEST PUSH1 0x0 PUSH1 0x20 SWAP1 POP PUSH1 0x1F DUP4 GT PUSH1 0x1 DUP2 EQ PUSH3 0x4E4 JUMPI PUSH1 0x0 DUP5 ISZERO PUSH3 0x4CF JUMPI DUP3 DUP8 ADD MLOAD SWAP1 POP JUMPDEST PUSH3 0x4DB DUP6 DUP3 PUSH3 0x302 JUMP JUMPDEST DUP7 SSTORE POP PUSH3 0x54B JUMP JUMPDEST PUSH1 0x1F NOT DUP5 AND PUSH3 0x4F4 DUP7 PUSH3 0x407 JUMP JUMPDEST PUSH1 0x0 JUMPDEST DUP3 DUP2 LT ISZERO PUSH3 0x51E JUMPI DUP5 DUP10 ADD MLOAD DUP3 SSTORE PUSH1 0x1 DUP3 ADD SWAP2 POP PUSH1 0x20 DUP6 ADD SWAP5 POP PUSH1 0x20 DUP2 ADD SWAP1 POP PUSH3 0x4F7 JUMP JUMPDEST DUP7 DUP4 LT ISZERO PUSH3 0x53E JUMPI DUP5 DUP10 ADD MLOAD PUSH3 0x53A PUSH1 0x1F DUP10 AND DUP3 PUSH3 0x2E2 JUMP JUMPDEST DUP4 SSTORE POP JUMPDEST PUSH1 0x1 PUSH1 0x2 DUP9 MUL ADD DUP9 SSTORE POP POP POP JUMPDEST POP POP POP POP POP POP JUMP JUMPDEST PUSH2 0x9C6 DUP1 PUSH3 0x563 PUSH1 0x0 CODECOPY PUSH1 0x0 RETURN INVALID PUSH1 0x80 PUSH1 0x40 MSTORE CALLVALUE DUP1 ISZERO PUSH2 0x10 JUMPI PUSH1 0x0 DUP1 REVERT JUMPDEST POP PUSH1 0x4 CALLDATASIZE LT PUSH2 0x57 JUMPI PUSH1 0x0 CALLDATALOAD PUSH1 0xE0 SHR DUP1 PUSH4 0x7DA3EAE EQ PUSH2 0x5C JUMPI DUP1 PUSH4 0x492BFA18 EQ PUSH2 0x7A JUMPI DUP1 PUSH4 0x712F4602 EQ PUSH2 0x98 JUMPI DUP1 PUSH4 0x7C66D013 EQ PUSH2 0xB6 JUMPI DUP1 PUSH4 0x82180568 EQ PUSH2 0xE6 JUMPI JUMPDEST PUSH1 0x0 DUP1 REVERT JUMPDEST PUSH2 0x64 PUSH2 0x102 JUMP JUMPDEST PUSH1 0x40 MLOAD PUSH2 0x71 SWAP2 SWAP1 PUSH2 0x2B9 JUMP JUMPDEST PUSH1 0x40 MLOAD DUP1 SWAP2 SUB SWAP1 RETURN JUMPDEST PUSH2 0x82 PUSH2 0x118 JUMP JUMPDEST PUSH1 0x40 MLOAD PUSH2 0x8F SWAP2 SWAP1 PUSH2 0x364 JUMP JUMPDEST PUSH1 0x40 MLOAD DUP1 SWAP2 SUB SWAP1 RETURN JUMPDEST PUSH2 0xA0 PUSH2 0x1A6 JUMP JUMPDEST PUSH1 0x40 MLOAD PUSH2 0xAD SWAP2 SWAP1 PUSH2 0x3DB JUMP JUMPDEST PUSH1 0x40 MLOAD DUP1 SWAP2 SUB SWAP1 RETURN JUMPDEST PUSH2 0xD0 PUSH1 0x4 DUP1 CALLDATASIZE SUB DUP2 ADD SWAP1 PUSH2 0xCB SWAP2 SWAP1 PUSH2 0x546 JUMP JUMPDEST PUSH2 0x234 JUMP JUMPDEST PUSH1 0x40 MLOAD PUSH2 0xDD SWAP2 SWAP1 PUSH2 0x5AA JUMP JUMPDEST PUSH1 0x40 MLOAD DUP1 SWAP2 SUB SWAP1 RETURN JUMPDEST PUSH2 0x100 PUSH1 0x4 DUP1 CALLDATASIZE SUB DUP2 ADD SWAP1 PUSH2 0xFB SWAP2 SWAP1 PUSH2 0x546 JUMP JUMPDEST PUSH2 0x28D JUMP JUMPDEST STOP JUMPDEST PUSH1 0x0 PUSH1 0x1 DUP1 SLOAD PUSH2 0x111 SWAP1 PUSH2 0x5F4 JUMP JUMPDEST SWAP1 POP SWAP1 POP SWAP1 JUMP JUMPDEST PUSH1 0x0 DUP1 SLOAD PUSH2 0x125 SWAP1 PUSH2 0x5F4 JUMP JUMPDEST DUP1 PUSH1 0x1F ADD PUSH1 0x20 DUP1 SWAP2 DIV MUL PUSH1 0x20 ADD PUSH1 0x40 MLOAD SWAP1 DUP2 ADD PUSH1 0x40 MSTORE DUP1 SWAP3 SWAP2 SWAP1 DUP2 DUP2 MSTORE PUSH1 0x20 ADD DUP3 DUP1 SLOAD PUSH2 0x151 SWAP1 PUSH2 0x5F4 JUMP JUMPDEST DUP1 ISZERO PUSH2 0x19E JUMPI DUP1 PUSH1 0x1F LT PUSH2 0x173 JUMPI PUSH2 0x100 DUP1 DUP4 SLOAD DIV MUL DUP4 MSTORE SWAP2 PUSH1 0x20 ADD SWAP2 PUSH2 0x19E JUMP JUMPDEST DUP3 ADD SWAP2 SWAP1 PUSH1 0x0 MSTORE PUSH1 0x20 PUSH1 0x0 KECCAK256 SWAP1 JUMPDEST DUP2 SLOAD DUP2 MSTORE SWAP1 PUSH1 0x1 ADD SWAP1 PUSH1 0x20 ADD DUP1 DUP4 GT PUSH2 0x181 JUMPI DUP3 SWAP1 SUB PUSH1 0x1F AND DUP3 ADD SWAP2 JUMPDEST POP POP POP POP POP DUP2 JUMP JUMPDEST PUSH1 0x1 DUP1 SLOAD PUSH2 0x1B3 SWAP1 PUSH2 0x5F4 JUMP JUMPDEST DUP1 PUSH1 0x1F ADD PUSH1 0x20 DUP1 SWAP2 DIV MUL PUSH1 0x20 ADD PUSH1 0x40 MLOAD SWAP1 DUP2 ADD PUSH1 0x40 MSTORE DUP1 SWAP3 SWAP2 SWAP1 DUP2 DUP2 MSTORE PUSH1 0x20 ADD DUP3 DUP1 SLOAD PUSH2 0x1DF SWAP1 PUSH2 0x5F4 JUMP JUMPDEST DUP1 ISZERO PUSH2 0x22C JUMPI DUP1 PUSH1 0x1F LT PUSH2 0x201 JUMPI PUSH2 0x100 DUP1 DUP4 SLOAD DIV MUL DUP4 MSTORE SWAP2 PUSH1 0x20 ADD SWAP2 PUSH2 0x22C JUMP JUMPDEST DUP3 ADD SWAP2 SWAP1 PUSH1 0x0 MSTORE PUSH1 0x20 PUSH1 0x0 KECCAK256 SWAP1 JUMPDEST DUP2 SLOAD DUP2 MSTORE SWAP1 PUSH1 0x1 ADD SWAP1 PUSH1 0x20 ADD DUP1 DUP4 GT PUSH2 0x20F JUMPI DUP3 SWAP1 SUB PUSH1 0x1F AND DUP3 ADD SWAP2 JUMPDEST POP POP POP POP POP DUP2 JUMP JUMPDEST PUSH1 0x0 DUP2 PUSH1 0x40 MLOAD PUSH1 0x20 ADD PUSH2 0x247 SWAP2 SWAP1 PUSH2 0x661 JUMP JUMPDEST PUSH1 0x40 MLOAD PUSH1 0x20 DUP2 DUP4 SUB SUB DUP2 MSTORE SWAP1 PUSH1 0x40 MSTORE DUP1 MLOAD SWAP1 PUSH1 0x20 ADD KECCAK256 PUSH1 0x0 PUSH1 0x40 MLOAD PUSH1 0x20 ADD PUSH2 0x26F SWAP2 SWAP1 PUSH2 0x710 JUMP JUMPDEST PUSH1 0x40 MLOAD PUSH1 0x20 DUP2 DUP4 SUB SUB DUP2 MSTORE SWAP1 PUSH1 0x40 MSTORE DUP1 MLOAD SWAP1 PUSH1 0x20 ADD KECCAK256 EQ SWAP1 POP SWAP2 SWAP1 POP JUMP JUMPDEST DUP1 PUSH1 0x0 SWAP1 DUP2 PUSH2 0x29C SWAP2 SWAP1 PUSH2 0x8BE JUMP JUMPDEST POP POP JUMP JUMPDEST PUSH1 0x0 DUP2 SWAP1 POP SWAP2 SWAP1 POP JUMP JUMPDEST PUSH2 0x2B3 DUP2 PUSH2 0x2A0 JUMP JUMPDEST DUP3 MSTORE POP POP JUMP JUMPDEST PUSH1 0x0 PUSH1 0x20 DUP3 ADD SWAP1 POP PUSH2 0x2CE PUSH1 0x0 DUP4 ADD DUP5 PUSH2 0x2AA JUMP JUMPDEST SWAP3 SWAP2 POP POP JUMP JUMPDEST PUSH1 0x0 DUP2 MLOAD SWAP1 POP SWAP2 SWAP1 POP JUMP JUMPDEST PUSH1 0x0 DUP3 DUP3 MSTORE PUSH1 0x20 DUP3 ADD SWAP1 POP SWAP3 SWAP2 POP POP JUMP JUMPDEST PUSH1 0x0 JUMPDEST DUP4 DUP2 LT ISZERO PUSH2 0x30E JUMPI DUP1 DUP3 ADD MLOAD DUP2 DUP5 ADD MSTORE PUSH1 0x20 DUP2 ADD SWAP1 POP PUSH2 0x2F3 JUMP JUMPDEST PUSH1 0x0 DUP5 DUP5 ADD MSTORE POP POP POP POP JUMP JUMPDEST PUSH1 0x0 PUSH1 0x1F NOT PUSH1 0x1F DUP4 ADD AND SWAP1 POP SWAP2 SWAP1 POP JUMP JUMPDEST PUSH1 0x0 PUSH2 0x336 DUP3 PUSH2 0x2D4 JUMP JUMPDEST PUSH2 0x340 DUP2 DUP6 PUSH2 0x2DF JUMP JUMPDEST SWAP4 POP PUSH2 0x350 DUP2 DUP6 PUSH1 0x20 DUP7 ADD PUSH2 0x2F0 JUMP JUMPDEST PUSH2 0x359 DUP2 PUSH2 0x31A JUMP JUMPDEST DUP5 ADD SWAP2 POP POP SWAP3 SWAP2 POP POP JUMP JUMPDEST PUSH1 0x0 PUSH1 0x20 DUP3 ADD SWAP1 POP DUP2 DUP2 SUB PUSH1 0x0 DUP4 ADD MSTORE PUSH2 0x37E DUP2 DUP5 PUSH2 0x32B JUMP JUMPDEST SWAP1 POP SWAP3 SWAP2 POP POP JUMP JUMPDEST PUSH1 0x0 DUP2 MLOAD SWAP1 POP SWAP2 SWAP1 POP JUMP JUMPDEST PUSH1 0x0 DUP3 DUP3 MSTORE PUSH1 0x20 DUP3 ADD SWAP1 POP SWAP3 SWAP2 POP POP JUMP JUMPDEST PUSH1 0x0 PUSH2 0x3AD DUP3 PUSH2 0x386 JUMP JUMPDEST PUSH2 0x3B7 DUP2 DUP6 PUSH2 0x391 JUMP JUMPDEST SWAP4 POP PUSH2 0x3C7 DUP2 DUP6 PUSH1 0x20 DUP7 ADD PUSH2 0x2F0 JUMP JUMPDEST PUSH2 0x3D0 DUP2 PUSH2 0x31A JUMP JUMPDEST DUP5 ADD SWAP2 POP POP SWAP3 SWAP2 POP POP JUMP JUMPDEST PUSH1 0x0 PUSH1 0x20 DUP3 ADD SWAP1 POP DUP2 DUP2 SUB PUSH1 0x0 DUP4 ADD MSTORE PUSH2 0x3F5 DUP2 DUP5 PUSH2 0x3A2 JUMP JUMPDEST SWAP1 POP SWAP3 SWAP2 POP POP JUMP JUMPDEST PUSH1 0x0 PUSH1 0x40 MLOAD SWAP1 POP SWAP1 JUMP JUMPDEST PUSH1 0x0 DUP1 REVERT JUMPDEST PUSH1 0x0 DUP1 REVERT JUMPDEST PUSH1 0x0 DUP1 REVERT JUMPDEST PUSH1 0x0 DUP1 REVERT JUMPDEST PUSH32 0x4E487B7100000000000000000000000000000000000000000000000000000000 PUSH1 0x0 MSTORE PUSH1 0x41 PUSH1 0x4 MSTORE PUSH1 0x24 PUSH1 0x0 REVERT JUMPDEST PUSH2 0x453 DUP3 PUSH2 0x31A JUMP JUMPDEST DUP2 ADD DUP2 DUP2 LT PUSH8 0xFFFFFFFFFFFFFFFF DUP3 GT OR ISZERO PUSH2 0x472 JUMPI PUSH2 0x471 PUSH2 0x41B JUMP JUMPDEST JUMPDEST DUP1 PUSH1 0x40 MSTORE POP POP POP JUMP JUMPDEST PUSH1 0x0 PUSH2 0x485 PUSH2 0x3FD JUMP JUMPDEST SWAP1 POP PUSH2 0x491 DUP3 DUP3 PUSH2 0x44A JUMP JUMPDEST SWAP2 SWAP1 POP JUMP JUMPDEST PUSH1 0x0 PUSH8 0xFFFFFFFFFFFFFFFF DUP3 GT ISZERO PUSH2 0x4B1 JUMPI PUSH2 0x4B0 PUSH2 0x41B JUMP JUMPDEST JUMPDEST PUSH2 0x4BA DUP3 PUSH2 0x31A JUMP JUMPDEST SWAP1 POP PUSH1 0x20 DUP2 ADD SWAP1 POP SWAP2 SWAP1 POP JUMP JUMPDEST DUP3 DUP2 DUP4 CALLDATACOPY PUSH1 0x0 DUP4 DUP4 ADD MSTORE POP POP POP JUMP JUMPDEST PUSH1 0x0 PUSH2 0x4E9 PUSH2 0x4E4 DUP5 PUSH2 0x496 JUMP JUMPDEST PUSH2 0x47B JUMP JUMPDEST SWAP1 POP DUP3 DUP2 MSTORE PUSH1 0x20 DUP2 ADD DUP5 DUP5 DUP5 ADD GT ISZERO PUSH2 0x505 JUMPI PUSH2 0x504 PUSH2 0x416 JUMP JUMPDEST JUMPDEST PUSH2 0x510 DUP5 DUP3 DUP6 PUSH2 0x4C7 JUMP JUMPDEST POP SWAP4 SWAP3 POP POP POP JUMP JUMPDEST PUSH1 0x0 DUP3 PUSH1 0x1F DUP4 ADD SLT PUSH2 0x52D JUMPI PUSH2 0x52C PUSH2 0x411 JUMP JUMPDEST JUMPDEST DUP2 CALLDATALOAD PUSH2 0x53D DUP5 DUP3 PUSH1 0x20 DUP7 ADD PUSH2 0x4D6 JUMP JUMPDEST SWAP2 POP POP SWAP3 SWAP2 POP POP JUMP JUMPDEST PUSH1 0x0 PUSH1 0x20 DUP3 DUP5 SUB SLT ISZERO PUSH2 0x55C JUMPI PUSH2 0x55B PUSH2 0x407 JUMP JUMPDEST JUMPDEST PUSH1 0x0 DUP3 ADD CALLDATALOAD PUSH8 0xFFFFFFFFFFFFFFFF DUP2 GT ISZERO PUSH2 0x57A JUMPI PUSH2 0x579 PUSH2 0x40C JUMP JUMPDEST JUMPDEST PUSH2 0x586 DUP5 DUP3 DUP6 ADD PUSH2 0x518 JUMP JUMPDEST SWAP2 POP POP SWAP3 SWAP2 POP POP JUMP JUMPDEST PUSH1 0x0 DUP2 ISZERO ISZERO SWAP1 POP SWAP2 SWAP1 POP JUMP JUMPDEST PUSH2 0x5A4 DUP2 PUSH2 0x58F JUMP JUMPDEST DUP3 MSTORE POP POP JUMP JUMPDEST PUSH1 0x0 PUSH1 0x20 DUP3 ADD SWAP1 POP PUSH2 0x5BF PUSH1 0x0 DUP4 ADD DUP5 PUSH2 0x59B JUMP JUMPDEST SWAP3 SWAP2 POP POP JUMP JUMPDEST PUSH32 0x4E487B7100000000000000000000000000000000000000000000000000000000 PUSH1 0x0 MSTORE PUSH1 0x22 PUSH1 0x4 MSTORE PUSH1 0x24 PUSH1 0x0 REVERT JUMPDEST PUSH1 0x0 PUSH1 0x2 DUP3 DIV SWAP1 POP PUSH1 0x1 DUP3 AND DUP1 PUSH2 0x60C JUMPI PUSH1 0x7F DUP3 AND SWAP2 POP JUMPDEST PUSH1 0x20 DUP3 LT DUP2 SUB PUSH2 0x61F JUMPI PUSH2 0x61E PUSH2 0x5C5 JUMP JUMPDEST JUMPDEST POP SWAP2 SWAP1 POP JUMP JUMPDEST PUSH1 0x0 DUP2 SWAP1 POP SWAP3 SWAP2 POP POP JUMP JUMPDEST PUSH1 0x0 PUSH2 0x63B DUP3 PUSH2 0x2D4 JUMP JUMPDEST PUSH2 0x645 DUP2 DUP6 PUSH2 0x625 JUMP JUMPDEST SWAP4 POP PUSH2 0x655 DUP2 DUP6 PUSH1 0x20 DUP7 ADD PUSH2 0x2F0 JUMP JUMPDEST DUP1 DUP5 ADD SWAP2 POP POP SWAP3 SWAP2 POP POP JUMP JUMPDEST PUSH1 0x0 PUSH2 0x66D DUP3 DUP5 PUSH2 0x630 JUMP JUMPDEST SWAP2 POP DUP2 SWAP1 POP SWAP3 SWAP2 POP POP JUMP JUMPDEST PUSH1 0x0 DUP2 SWAP1 POP DUP2 PUSH1 0x0 MSTORE PUSH1 0x20 PUSH1 0x0 KECCAK256 SWAP1 POP SWAP2 SWAP1 POP JUMP JUMPDEST PUSH1 0x0 DUP2 SLOAD PUSH2 0x69A DUP2 PUSH2 0x5F4 JUMP JUMPDEST PUSH2 0x6A4 DUP2 DUP7 PUSH2 0x625 JUMP JUMPDEST SWAP5 POP PUSH1 0x1 DUP3 AND PUSH1 0x0 DUP2 EQ PUSH2 0x6BF JUMPI PUSH1 0x1 DUP2 EQ PUSH2 0x6D4 JUMPI PUSH2 0x707 JUMP JUMPDEST PUSH1 0xFF NOT DUP4 AND DUP7 MSTORE DUP2 ISZERO ISZERO DUP3 MUL DUP7 ADD SWAP4 POP PUSH2 0x707 JUMP JUMPDEST PUSH2 0x6DD DUP6 PUSH2 0x678 JUMP JUMPDEST PUSH1 0x0 JUMPDEST DUP4 DUP2 LT ISZERO PUSH2 0x6FF JUMPI DUP2 SLOAD DUP2 DUP10 ADD MSTORE PUSH1 0x1 DUP3 ADD SWAP2 POP PUSH1 0x20 DUP2 ADD SWAP1 POP PUSH2 0x6E0 JUMP JUMPDEST DUP4 DUP9 ADD SWAP6 POP POP POP JUMPDEST POP POP POP SWAP3 SWAP2 POP POP JUMP JUMPDEST PUSH1 0x0 PUSH2 0x71C DUP3 DUP5 PUSH2 0x68D JUMP JUMPDEST SWAP2 POP DUP2 SWAP1 POP SWAP3 SWAP2 POP POP JUMP JUMPDEST PUSH1 0x0 PUSH1 0x20 PUSH1 0x1F DUP4 ADD DIV SWAP1 POP SWAP2 SWAP1 POP JUMP JUMPDEST PUSH1 0x0 DUP3 DUP3 SHL SWAP1 POP SWAP3 SWAP2 POP POP JUMP JUMPDEST PUSH1 0x0 PUSH1 0x8 DUP4 MUL PUSH2 0x774 PUSH32 0xFFFFFFFFFFFFFFFFFFFFFFFFFFFFFFFFFFFFFFFFFFFFFFFFFFFFFFFFFFFFFFFF DUP3 PUSH2 0x737 JUMP JUMPDEST PUSH2 0x77E DUP7 DUP4 PUSH2 0x737 JUMP JUMPDEST SWAP6 POP DUP1 NOT DUP5 AND SWAP4 POP DUP1 DUP7 AND DUP5 OR SWAP3 POP POP POP SWAP4 SWAP3 POP POP POP JUMP JUMPDEST PUSH1 0x0 DUP2 SWAP1 POP SWAP2 SWAP1 POP JUMP JUMPDEST PUSH1 0x0 PUSH2 0x7BB PUSH2 0x7B6 PUSH2 0x7B1 DUP5 PUSH2 0x2A0 JUMP JUMPDEST PUSH2 0x796 JUMP JUMPDEST PUSH2 0x2A0 JUMP JUMPDEST SWAP1 POP SWAP2 SWAP1 POP JUMP JUMPDEST PUSH1 0x0 DUP2 SWAP1 POP SWAP2 SWAP1 POP JUMP JUMPDEST PUSH2 0x7D5 DUP4 PUSH2 0x7A0 JUMP JUMPDEST PUSH2 0x7E9 PUSH2 0x7E1 DUP3 PUSH2 0x7C2 JUMP JUMPDEST DUP5 DUP5 SLOAD PUSH2 0x744 JUMP JUMPDEST DUP3 SSTORE POP POP POP POP JUMP JUMPDEST PUSH1 0x0 SWAP1 JUMP JUMPDEST PUSH2 0x7FE PUSH2 0x7F1 JUMP JUMPDEST PUSH2 0x809 DUP2 DUP5 DUP5 PUSH2 0x7CC JUMP JUMPDEST POP POP POP JUMP JUMPDEST JUMPDEST DUP2 DUP2 LT ISZERO PUSH2 0x82D JUMPI PUSH2 0x822 PUSH1 0x0 DUP3 PUSH2 0x7F6 JUMP JUMPDEST PUSH1 0x1 DUP2 ADD SWAP1 POP PUSH2 0x80F JUMP JUMPDEST POP POP JUMP JUMPDEST PUSH1 0x1F DUP3 GT ISZERO PUSH2 0x872 JUMPI PUSH2 0x843 DUP2 PUSH2 0x678 JUMP JUMPDEST PUSH2 0x84C DUP5 PUSH2 0x727 JUMP JUMPDEST DUP2 ADD PUSH1 0x20 DUP6 LT ISZERO PUSH2 0x85B JUMPI DUP2 SWAP1 POP JUMPDEST PUSH2 0x86F PUSH2 0x867 DUP6 PUSH2 0x727 JUMP JUMPDEST DUP4 ADD DUP3 PUSH2 0x80E JUMP JUMPDEST POP POP JUMPDEST POP POP POP JUMP JUMPDEST PUSH1 0x0 DUP3 DUP3 SHR SWAP1 POP SWAP3 SWAP2 POP POP JUMP JUMPDEST PUSH1 0x0 PUSH2 0x895 PUSH1 0x0 NOT DUP5 PUSH1 0x8 MUL PUSH2 0x877 JUMP JUMPDEST NOT DUP1 DUP4 AND SWAP2 POP POP SWAP3 SWAP2 POP POP JUMP JUMPDEST PUSH1 0x0 PUSH2 0x8AE DUP4 DUP4 PUSH2 0x884 JUMP JUMPDEST SWAP2 POP DUP3 PUSH1 0x2 MUL DUP3 OR SWAP1 POP SWAP3 SWAP2 POP POP JUMP JUMPDEST PUSH2 0x8C7 DUP3 PUSH2 0x2D4 JUMP JUMPDEST PUSH8 0xFFFFFFFFFFFFFFFF DUP2 GT ISZERO PUSH2 0x8E0 JUMPI PUSH2 0x8DF PUSH2 0x41B JUMP JUMPDEST JUMPDEST PUSH2 0x8EA DUP3 SLOAD PUSH2 0x5F4 JUMP JUMPDEST PUSH2 0x8F5 DUP3 DUP3 DUP6 PUSH2 0x831 JUMP JUMPDEST PUSH1 0x0 PUSH1 0x20 SWAP1 POP PUSH1 0x1F DUP4 GT PUSH1 0x1 DUP2 EQ PUSH2 0x928 JUMPI PUSH1 0x0 DUP5 ISZERO PUSH2 0x916 JUMPI DUP3 DUP8 ADD MLOAD SWAP1 POP JUMPDEST PUSH2 0x920 DUP6 DUP3 PUSH2 0x8A2 JUMP JUMPDEST DUP7 SSTORE POP PUSH2 0x988 JUMP JUMPDEST PUSH1 0x1F NOT DUP5 AND PUSH2 0x936 DUP7 PUSH2 0x678 JUMP JUMPDEST PUSH1 0x0 JUMPDEST DUP3 DUP2 LT ISZERO PUSH2 0x95E JUMPI DUP5 DUP10 ADD MLOAD DUP3 SSTORE PUSH1 0x1 DUP3 ADD SWAP2 POP PUSH1 0x20 DUP6 ADD SWAP5 POP PUSH1 0x20 DUP2 ADD SWAP1 POP PUSH2 0x939 JUMP JUMPDEST DUP7 DUP4 LT ISZERO PUSH2 0x97B JUMPI DUP5 DUP10 ADD MLOAD PUSH2 0x977 PUSH1 0x1F DUP10 AND DUP3 PUSH2 0x884 JUMP JUMPDEST DUP4 SSTORE POP JUMPDEST PUSH1 0x1 PUSH1 0x2 DUP9 MUL ADD DUP9 SSTORE POP POP POP JUMPDEST POP POP POP POP POP POP JUMP INVALID LOG2 PUSH5 0x6970667358 0x22 SLT KECCAK256 CODESIZE 0x29 DUP6 0xB1 0x5F 0xB5 SWAP7 MSIZE 0xA9 0xCB DUP9 DUP15 0xF PUSH30 0xACA9CB4EA032AC145F446F1BD844502178F564736F6C6343000812003300 "
				},
				"gasEstimates": {
					"creation": {
						"codeDepositCost": "500400",
						"executionCost": "infinite",
						"totalCost": "infinite"
					},
					"external": {
						"compareTwoString(string)": "infinite",
						"getBytesLength()": "2548",
						"myBytes()": "infinite",
						"myString()": "infinite",
						"setMyString(string)": "infinite"
					}
				},
				"methodIdentifiers": {
					"compareTwoString(string)": "7c66d013",
					"getBytesLength()": "07da3eae",
					"myBytes()": "712f4602",
					"myString()": "492bfa18",
					"setMyString(string)": "82180568"
				}
			},
			"storageLayout": {
				"storage": [
					{
						"astId": 4,
						"contract": "contracts/24_ExampleStrings.sol:ExampleStrings",
						"label": "myString",
						"offset": 0,
						"slot": "0",
						"type": "t_string_storage"
					},
					{
						"astId": 7,
						"contract": "contracts/24_ExampleStrings.sol:ExampleStrings",
						"label": "myBytes",
						"offset": 0,
						"slot": "1",
						"type": "t_bytes_storage"
					}
				],
				"types": {
					"t_bytes_storage": {
						"encoding": "bytes",
						"label": "bytes",
						"numberOfBytes": "32"
					},
					"t_string_storage": {
						"encoding": "bytes",
						"label": "string",
						"numberOfBytes": "32"
					}
				}
			},
			"userdoc": {
				"kind": "user",
				"methods": {},
				"version": 1
			}
		}
	}
}